{
  "contractName": "NFTCollection",
  "abi": [
    {
      "inputs": [],
      "stateMutability": "nonpayable",
      "type": "constructor"
    },
    {
      "anonymous": false,
      "inputs": [
        {
          "indexed": true,
          "internalType": "address",
          "name": "owner",
          "type": "address"
        },
        {
          "indexed": true,
          "internalType": "address",
          "name": "approved",
          "type": "address"
        },
        {
          "indexed": true,
          "internalType": "uint256",
          "name": "tokenId",
          "type": "uint256"
        }
      ],
      "name": "Approval",
      "type": "event"
    },
    {
      "anonymous": false,
      "inputs": [
        {
          "indexed": true,
          "internalType": "address",
          "name": "owner",
          "type": "address"
        },
        {
          "indexed": true,
          "internalType": "address",
          "name": "operator",
          "type": "address"
        },
        {
          "indexed": false,
          "internalType": "bool",
          "name": "approved",
          "type": "bool"
        }
      ],
      "name": "ApprovalForAll",
      "type": "event"
    },
    {
      "anonymous": false,
      "inputs": [
        {
          "indexed": false,
          "internalType": "uint256",
          "name": "tokenID",
          "type": "uint256"
        },
        {
          "indexed": false,
          "internalType": "address",
          "name": "userAddress",
          "type": "address"
        },
        {
          "indexed": false,
          "internalType": "string",
          "name": "tokenURI",
          "type": "string"
        }
      ],
      "name": "NewMintedToken",
      "type": "event"
    },
    {
      "anonymous": false,
      "inputs": [
        {
          "indexed": true,
          "internalType": "address",
          "name": "from",
          "type": "address"
        },
        {
          "indexed": true,
          "internalType": "address",
          "name": "to",
          "type": "address"
        },
        {
          "indexed": true,
          "internalType": "uint256",
          "name": "tokenId",
          "type": "uint256"
        }
      ],
      "name": "Transfer",
      "type": "event"
    },
    {
      "inputs": [
        {
          "internalType": "address",
          "name": "to",
          "type": "address"
        },
        {
          "internalType": "uint256",
          "name": "tokenId",
          "type": "uint256"
        }
      ],
      "name": "approve",
      "outputs": [],
      "stateMutability": "nonpayable",
      "type": "function"
    },
    {
      "inputs": [
        {
          "internalType": "address",
          "name": "owner",
          "type": "address"
        }
      ],
      "name": "balanceOf",
      "outputs": [
        {
          "internalType": "uint256",
          "name": "",
          "type": "uint256"
        }
      ],
      "stateMutability": "view",
      "type": "function",
      "constant": true
    },
    {
      "inputs": [
        {
          "internalType": "uint256",
          "name": "tokenId",
          "type": "uint256"
        }
      ],
      "name": "getApproved",
      "outputs": [
        {
          "internalType": "address",
          "name": "",
          "type": "address"
        }
      ],
      "stateMutability": "view",
      "type": "function",
      "constant": true
    },
    {
      "inputs": [
        {
          "internalType": "address",
          "name": "owner",
          "type": "address"
        },
        {
          "internalType": "address",
          "name": "operator",
          "type": "address"
        }
      ],
      "name": "isApprovedForAll",
      "outputs": [
        {
          "internalType": "bool",
          "name": "",
          "type": "bool"
        }
      ],
      "stateMutability": "view",
      "type": "function",
      "constant": true
    },
    {
      "inputs": [],
      "name": "name",
      "outputs": [
        {
          "internalType": "string",
          "name": "",
          "type": "string"
        }
      ],
      "stateMutability": "view",
      "type": "function",
      "constant": true
    },
    {
      "inputs": [
        {
          "internalType": "uint256",
          "name": "tokenId",
          "type": "uint256"
        }
      ],
      "name": "ownerOf",
      "outputs": [
        {
          "internalType": "address",
          "name": "",
          "type": "address"
        }
      ],
      "stateMutability": "view",
      "type": "function",
      "constant": true
    },
    {
      "inputs": [
        {
          "internalType": "address",
          "name": "from",
          "type": "address"
        },
        {
          "internalType": "address",
          "name": "to",
          "type": "address"
        },
        {
          "internalType": "uint256",
          "name": "tokenId",
          "type": "uint256"
        }
      ],
      "name": "safeTransferFrom",
      "outputs": [],
      "stateMutability": "nonpayable",
      "type": "function"
    },
    {
      "inputs": [
        {
          "internalType": "address",
          "name": "from",
          "type": "address"
        },
        {
          "internalType": "address",
          "name": "to",
          "type": "address"
        },
        {
          "internalType": "uint256",
          "name": "tokenId",
          "type": "uint256"
        },
        {
          "internalType": "bytes",
          "name": "_data",
          "type": "bytes"
        }
      ],
      "name": "safeTransferFrom",
      "outputs": [],
      "stateMutability": "nonpayable",
      "type": "function"
    },
    {
      "inputs": [
        {
          "internalType": "address",
          "name": "operator",
          "type": "address"
        },
        {
          "internalType": "bool",
          "name": "approved",
          "type": "bool"
        }
      ],
      "name": "setApprovalForAll",
      "outputs": [],
      "stateMutability": "nonpayable",
      "type": "function"
    },
    {
      "inputs": [
        {
          "internalType": "bytes4",
          "name": "interfaceId",
          "type": "bytes4"
        }
      ],
      "name": "supportsInterface",
      "outputs": [
        {
          "internalType": "bool",
          "name": "",
          "type": "bool"
        }
      ],
      "stateMutability": "view",
      "type": "function",
      "constant": true
    },
    {
      "inputs": [],
      "name": "symbol",
      "outputs": [
        {
          "internalType": "string",
          "name": "",
          "type": "string"
        }
      ],
      "stateMutability": "view",
      "type": "function",
      "constant": true
    },
    {
      "inputs": [
        {
          "internalType": "address",
          "name": "from",
          "type": "address"
        },
        {
          "internalType": "address",
          "name": "to",
          "type": "address"
        },
        {
          "internalType": "uint256",
          "name": "tokenId",
          "type": "uint256"
        }
      ],
      "name": "transferFrom",
      "outputs": [],
      "stateMutability": "nonpayable",
      "type": "function"
    },
    {
      "inputs": [
        {
          "internalType": "address",
          "name": "userAddress",
          "type": "address"
        },
        {
          "internalType": "string",
          "name": "_tokenURI",
          "type": "string"
        }
      ],
      "name": "newItem",
      "outputs": [],
      "stateMutability": "nonpayable",
      "type": "function"
    },
    {
      "inputs": [
        {
          "internalType": "uint256",
          "name": "tokenID",
          "type": "uint256"
        }
      ],
      "name": "tokenURI",
      "outputs": [
        {
          "internalType": "string",
          "name": "",
          "type": "string"
        }
      ],
      "stateMutability": "view",
      "type": "function",
      "constant": true
    }
  ],
  "bytecode": "0x60806040523480156200001157600080fd5b506040518060400160405280600d81526020017f4e4654436f6c6c656374696f6e000000000000000000000000000000000000008152506040518060400160405280600481526020017f4e46544300000000000000000000000000000000000000000000000000000000815250816000908051906020019062000096929190620000b8565b508060019080519060200190620000af929190620000b8565b505050620001cd565b828054620000c69062000168565b90600052602060002090601f016020900481019282620000ea576000855562000136565b82601f106200010557805160ff191683800117855562000136565b8280016001018555821562000136579182015b828111156200013557825182559160200191906001019062000118565b5b50905062000145919062000149565b5090565b5b80821115620001645760008160009055506001016200014a565b5090565b600060028204905060018216806200018157607f821691505b602082108114156200019857620001976200019e565b5b50919050565b7f4e487b7100000000000000000000000000000000000000000000000000000000600052602260045260246000fd5b61257a80620001dd6000396000f3fe608060405234801561001057600080fd5b50600436106100ea5760003560e01c806370a082311161008c578063a22cb46511610066578063a22cb4651461025b578063b88d4fde14610277578063c87b56dd14610293578063e985e9c5146102c3576100ea565b806370a08231146101f157806389f057611461022157806395d89b411461023d576100ea565b8063095ea7b3116100c8578063095ea7b31461016d57806323b872dd1461018957806342842e0e146101a55780636352211e146101c1576100ea565b806301ffc9a7146100ef57806306fdde031461011f578063081812fc1461013d575b600080fd5b610109600480360381019061010491906118d9565b6102f3565b6040516101169190611c21565b60405180910390f35b6101276103d5565b6040516101349190611c3c565b60405180910390f35b6101576004803603810190610152919061192b565b610467565b6040516101649190611bba565b60405180910390f35b6101876004803603810190610182919061189d565b6104ec565b005b6101a3600480360381019061019e9190611743565b610604565b005b6101bf60048036038101906101ba9190611743565b610664565b005b6101db60048036038101906101d6919061192b565b610684565b6040516101e89190611bba565b60405180910390f35b61020b600480360381019061020691906116de565b610736565b6040516102189190611dfe565b60405180910390f35b61023b60048036038101906102369190611849565b6107ee565b005b61024561085a565b6040516102529190611c3c565b60405180910390f35b6102756004803603810190610270919061180d565b6108ec565b005b610291600480360381019061028c9190611792565b610a6d565b005b6102ad60048036038101906102a8919061192b565b610acf565b6040516102ba9190611c3c565b60405180910390f35b6102dd60048036038101906102d89190611707565b610b74565b6040516102ea9190611c21565b60405180910390f35b60007f80ac58cd000000000000000000000000000000000000000000000000000000007bffffffffffffffffffffffffffffffffffffffffffffffffffffffff1916827bffffffffffffffffffffffffffffffffffffffffffffffffffffffff191614806103be57507f5b5e139f000000000000000000000000000000000000000000000000000000007bffffffffffffffffffffffffffffffffffffffffffffffffffffffff1916827bffffffffffffffffffffffffffffffffffffffffffffffffffffffff1916145b806103ce57506103cd82610c08565b5b9050919050565b6060600080546103e490612056565b80601f016020809104026020016040519081016040528092919081815260200182805461041090612056565b801561045d5780601f106104325761010080835404028352916020019161045d565b820191906000526020600020905b81548152906001019060200180831161044057829003601f168201915b5050505050905090565b600061047282610c72565b6104b1576040517f08c379a00000000000000000000000000000000000000000000000000000000081526004016104a890611d7e565b60405180910390fd5b6004600083815260200190815260200160002060009054906101000a900473ffffffffffffffffffffffffffffffffffffffff169050919050565b60006104f782610684565b90508073ffffffffffffffffffffffffffffffffffffffff168373ffffffffffffffffffffffffffffffffffffffff161415610568576040517f08c379a000000000000000000000000000000000000000000000000000000000815260040161055f90611dbe565b60405180910390fd5b8073ffffffffffffffffffffffffffffffffffffffff16610587610cde565b73ffffffffffffffffffffffffffffffffffffffff1614806105b657506105b5816105b0610cde565b610b74565b5b6105f5576040517f08c379a00000000000000000000000000000000000000000000000000000000081526004016105ec90611cfe565b60405180910390fd5b6105ff8383610ce6565b505050565b61061561060f610cde565b82610d9f565b610654576040517f08c379a000000000000000000000000000000000000000000000000000000000815260040161064b90611dde565b60405180910390fd5b61065f838383610e7d565b505050565b61067f83838360405180602001604052806000815250610a6d565b505050565b6000806002600084815260200190815260200160002060009054906101000a900473ffffffffffffffffffffffffffffffffffffffff169050600073ffffffffffffffffffffffffffffffffffffffff168173ffffffffffffffffffffffffffffffffffffffff16141561072d576040517f08c379a000000000000000000000000000000000000000000000000000000000815260040161072490611d3e565b60405180910390fd5b80915050919050565b60008073ffffffffffffffffffffffffffffffffffffffff168273ffffffffffffffffffffffffffffffffffffffff1614156107a7576040517f08c379a000000000000000000000000000000000000000000000000000000000815260040161079e90611d1e565b60405180910390fd5b600360008373ffffffffffffffffffffffffffffffffffffffff1673ffffffffffffffffffffffffffffffffffffffff168152602001908152602001600020549050919050565b6107f860066110d9565b600061080460066110ef565b905061081083826110fd565b61081a81836112cb565b7f16351f79b329f84d44dafb380db35cd2b3a5483cfa5711ffac9737d7d5c6317381848460405161084d93929190611e19565b60405180910390a1505050565b60606001805461086990612056565b80601f016020809104026020016040519081016040528092919081815260200182805461089590612056565b80156108e25780601f106108b7576101008083540402835291602001916108e2565b820191906000526020600020905b8154815290600101906020018083116108c557829003601f168201915b5050505050905090565b6108f4610cde565b73ffffffffffffffffffffffffffffffffffffffff168273ffffffffffffffffffffffffffffffffffffffff161415610962576040517f08c379a000000000000000000000000000000000000000000000000000000000815260040161095990611cbe565b60405180910390fd5b806005600061096f610cde565b73ffffffffffffffffffffffffffffffffffffffff1673ffffffffffffffffffffffffffffffffffffffff16815260200190815260200160002060008473ffffffffffffffffffffffffffffffffffffffff1673ffffffffffffffffffffffffffffffffffffffff16815260200190815260200160002060006101000a81548160ff0219169083151502179055508173ffffffffffffffffffffffffffffffffffffffff16610a1c610cde565b73ffffffffffffffffffffffffffffffffffffffff167f17307eab39ab6107e8899845ad3d59bd9653f200f220920489ca2b5937696c3183604051610a619190611c21565b60405180910390a35050565b610a7e610a78610cde565b83610d9f565b610abd576040517f08c379a0000000000000000000000000000000000000000000000000000000008152600401610ab490611dde565b60405180910390fd5b610ac9848484846112f7565b50505050565b6060600760008381526020019081526020016000208054610aef90612056565b80601f0160208091040260200160405190810160405280929190818152602001828054610b1b90612056565b8015610b685780601f10610b3d57610100808354040283529160200191610b68565b820191906000526020600020905b815481529060010190602001808311610b4b57829003601f168201915b50505050509050919050565b6000600560008473ffffffffffffffffffffffffffffffffffffffff1673ffffffffffffffffffffffffffffffffffffffff16815260200190815260200160002060008373ffffffffffffffffffffffffffffffffffffffff1673ffffffffffffffffffffffffffffffffffffffff16815260200190815260200160002060009054906101000a900460ff16905092915050565b60007f01ffc9a7000000000000000000000000000000000000000000000000000000007bffffffffffffffffffffffffffffffffffffffffffffffffffffffff1916827bffffffffffffffffffffffffffffffffffffffffffffffffffffffff1916149050919050565b60008073ffffffffffffffffffffffffffffffffffffffff166002600084815260200190815260200160002060009054906101000a900473ffffffffffffffffffffffffffffffffffffffff1673ffffffffffffffffffffffffffffffffffffffff1614159050919050565b600033905090565b816004600083815260200190815260200160002060006101000a81548173ffffffffffffffffffffffffffffffffffffffff021916908373ffffffffffffffffffffffffffffffffffffffff160217905550808273ffffffffffffffffffffffffffffffffffffffff16610d5983610684565b73ffffffffffffffffffffffffffffffffffffffff167f8c5be1e5ebec7d5bd14f71427d1e84f3dd0314c0f7b2291e5b200ac8c7c3b92560405160405180910390a45050565b6000610daa82610c72565b610de9576040517f08c379a0000000000000000000000000000000000000000000000000000000008152600401610de090611cde565b60405180910390fd5b6000610df483610684565b90508073ffffffffffffffffffffffffffffffffffffffff168473ffffffffffffffffffffffffffffffffffffffff161480610e6357508373ffffffffffffffffffffffffffffffffffffffff16610e4b84610467565b73ffffffffffffffffffffffffffffffffffffffff16145b80610e745750610e738185610b74565b5b91505092915050565b8273ffffffffffffffffffffffffffffffffffffffff16610e9d82610684565b73ffffffffffffffffffffffffffffffffffffffff1614610ef3576040517f08c379a0000000000000000000000000000000000000000000000000000000008152600401610eea90611d9e565b60405180910390fd5b600073ffffffffffffffffffffffffffffffffffffffff168273ffffffffffffffffffffffffffffffffffffffff161415610f63576040517f08c379a0000000000000000000000000000000000000000000000000000000008152600401610f5a90611c9e565b60405180910390fd5b610f6e838383611353565b610f79600082610ce6565b6001600360008573ffffffffffffffffffffffffffffffffffffffff1673ffffffffffffffffffffffffffffffffffffffff1681526020019081526020016000206000828254610fc99190611f6c565b925050819055506001600360008473ffffffffffffffffffffffffffffffffffffffff1673ffffffffffffffffffffffffffffffffffffffff16815260200190815260200160002060008282546110209190611f16565b92505081905550816002600083815260200190815260200160002060006101000a81548173ffffffffffffffffffffffffffffffffffffffff021916908373ffffffffffffffffffffffffffffffffffffffff160217905550808273ffffffffffffffffffffffffffffffffffffffff168473ffffffffffffffffffffffffffffffffffffffff167fddf252ad1be2c89b69c2b068fc378daa952ba7f163c4a11628f55a4df523b3ef60405160405180910390a4505050565b6001816000016000828254019250508190555050565b600081600001549050919050565b600073ffffffffffffffffffffffffffffffffffffffff168273ffffffffffffffffffffffffffffffffffffffff16141561116d576040517f08c379a000000000000000000000000000000000000000000000000000000000815260040161116490611d5e565b60405180910390fd5b61117681610c72565b156111b6576040517f08c379a00000000000000000000000000000000000000000000000000000000081526004016111ad90611c7e565b60405180910390fd5b6111c260008383611353565b6001600360008473ffffffffffffffffffffffffffffffffffffffff1673ffffffffffffffffffffffffffffffffffffffff16815260200190815260200160002060008282546112129190611f16565b92505081905550816002600083815260200190815260200160002060006101000a81548173ffffffffffffffffffffffffffffffffffffffff021916908373ffffffffffffffffffffffffffffffffffffffff160217905550808273ffffffffffffffffffffffffffffffffffffffff16600073ffffffffffffffffffffffffffffffffffffffff167fddf252ad1be2c89b69c2b068fc378daa952ba7f163c4a11628f55a4df523b3ef60405160405180910390a45050565b806007600084815260200190815260200160002090805190602001906112f2929190611502565b505050565b611302848484610e7d565b61130e84848484611358565b61134d576040517f08c379a000000000000000000000000000000000000000000000000000000000815260040161134490611c5e565b60405180910390fd5b50505050565b505050565b60006113798473ffffffffffffffffffffffffffffffffffffffff166114ef565b156114e2578373ffffffffffffffffffffffffffffffffffffffff1663150b7a026113a2610cde565b8786866040518563ffffffff1660e01b81526004016113c49493929190611bd5565b602060405180830381600087803b1580156113de57600080fd5b505af192505050801561140f57506040513d601f19601f8201168201806040525081019061140c9190611902565b60015b611492573d806000811461143f576040519150601f19603f3d011682016040523d82523d6000602084013e611444565b606091505b5060008151141561148a576040517f08c379a000000000000000000000000000000000000000000000000000000000815260040161148190611c5e565b60405180910390fd5b805181602001fd5b63150b7a0260e01b7bffffffffffffffffffffffffffffffffffffffffffffffffffffffff1916817bffffffffffffffffffffffffffffffffffffffffffffffffffffffff1916149150506114e7565b600190505b949350505050565b600080823b905060008111915050919050565b82805461150e90612056565b90600052602060002090601f0160209004810192826115305760008555611577565b82601f1061154957805160ff1916838001178555611577565b82800160010185558215611577579182015b8281111561157657825182559160200191906001019061155b565b5b5090506115849190611588565b5090565b5b808211156115a1576000816000905550600101611589565b5090565b60006115b86115b384611e7c565b611e57565b9050828152602081018484840111156115d057600080fd5b6115db848285612014565b509392505050565b60006115f66115f184611ead565b611e57565b90508281526020810184848401111561160e57600080fd5b611619848285612014565b509392505050565b600081359050611630816124e8565b92915050565b600081359050611645816124ff565b92915050565b60008135905061165a81612516565b92915050565b60008151905061166f81612516565b92915050565b600082601f83011261168657600080fd5b81356116968482602086016115a5565b91505092915050565b600082601f8301126116b057600080fd5b81356116c08482602086016115e3565b91505092915050565b6000813590506116d88161252d565b92915050565b6000602082840312156116f057600080fd5b60006116fe84828501611621565b91505092915050565b6000806040838503121561171a57600080fd5b600061172885828601611621565b925050602061173985828601611621565b9150509250929050565b60008060006060848603121561175857600080fd5b600061176686828701611621565b935050602061177786828701611621565b9250506040611788868287016116c9565b9150509250925092565b600080600080608085870312156117a857600080fd5b60006117b687828801611621565b94505060206117c787828801611621565b93505060406117d8878288016116c9565b925050606085013567ffffffffffffffff8111156117f557600080fd5b61180187828801611675565b91505092959194509250565b6000806040838503121561182057600080fd5b600061182e85828601611621565b925050602061183f85828601611636565b9150509250929050565b6000806040838503121561185c57600080fd5b600061186a85828601611621565b925050602083013567ffffffffffffffff81111561188757600080fd5b6118938582860161169f565b9150509250929050565b600080604083850312156118b057600080fd5b60006118be85828601611621565b92505060206118cf858286016116c9565b9150509250929050565b6000602082840312156118eb57600080fd5b60006118f98482850161164b565b91505092915050565b60006020828403121561191457600080fd5b600061192284828501611660565b91505092915050565b60006020828403121561193d57600080fd5b600061194b848285016116c9565b91505092915050565b61195d81611fa0565b82525050565b61196c81611fb2565b82525050565b600061197d82611ede565b6119878185611ef4565b9350611997818560208601612023565b6119a081612146565b840191505092915050565b60006119b682611ee9565b6119c08185611f05565b93506119d0818560208601612023565b6119d981612146565b840191505092915050565b60006119f1603283611f05565b91506119fc82612157565b604082019050919050565b6000611a14601c83611f05565b9150611a1f826121a6565b602082019050919050565b6000611a37602483611f05565b9150611a42826121cf565b604082019050919050565b6000611a5a601983611f05565b9150611a658261221e565b602082019050919050565b6000611a7d602c83611f05565b9150611a8882612247565b604082019050919050565b6000611aa0603883611f05565b9150611aab82612296565b604082019050919050565b6000611ac3602a83611f05565b9150611ace826122e5565b604082019050919050565b6000611ae6602983611f05565b9150611af182612334565b604082019050919050565b6000611b09602083611f05565b9150611b1482612383565b602082019050919050565b6000611b2c602c83611f05565b9150611b37826123ac565b604082019050919050565b6000611b4f602983611f05565b9150611b5a826123fb565b604082019050919050565b6000611b72602183611f05565b9150611b7d8261244a565b604082019050919050565b6000611b95603183611f05565b9150611ba082612499565b604082019050919050565b611bb48161200a565b82525050565b6000602082019050611bcf6000830184611954565b92915050565b6000608082019050611bea6000830187611954565b611bf76020830186611954565b611c046040830185611bab565b8181036060830152611c168184611972565b905095945050505050565b6000602082019050611c366000830184611963565b92915050565b60006020820190508181036000830152611c5681846119ab565b905092915050565b60006020820190508181036000830152611c77816119e4565b9050919050565b60006020820190508181036000830152611c9781611a07565b9050919050565b60006020820190508181036000830152611cb781611a2a565b9050919050565b60006020820190508181036000830152611cd781611a4d565b9050919050565b60006020820190508181036000830152611cf781611a70565b9050919050565b60006020820190508181036000830152611d1781611a93565b9050919050565b60006020820190508181036000830152611d3781611ab6565b9050919050565b60006020820190508181036000830152611d5781611ad9565b9050919050565b60006020820190508181036000830152611d7781611afc565b9050919050565b60006020820190508181036000830152611d9781611b1f565b9050919050565b60006020820190508181036000830152611db781611b42565b9050919050565b60006020820190508181036000830152611dd781611b65565b9050919050565b60006020820190508181036000830152611df781611b88565b9050919050565b6000602082019050611e136000830184611bab565b92915050565b6000606082019050611e2e6000830186611bab565b611e3b6020830185611954565b8181036040830152611e4d81846119ab565b9050949350505050565b6000611e61611e72565b9050611e6d8282612088565b919050565b6000604051905090565b600067ffffffffffffffff821115611e9757611e96612117565b5b611ea082612146565b9050602081019050919050565b600067ffffffffffffffff821115611ec857611ec7612117565b5b611ed182612146565b9050602081019050919050565b600081519050919050565b600081519050919050565b600082825260208201905092915050565b600082825260208201905092915050565b6000611f218261200a565b9150611f2c8361200a565b9250827fffffffffffffffffffffffffffffffffffffffffffffffffffffffffffffffff03821115611f6157611f606120b9565b5b828201905092915050565b6000611f778261200a565b9150611f828361200a565b925082821015611f9557611f946120b9565b5b828203905092915050565b6000611fab82611fea565b9050919050565b60008115159050919050565b60007fffffffff0000000000000000000000000000000000000000000000000000000082169050919050565b600073ffffffffffffffffffffffffffffffffffffffff82169050919050565b6000819050919050565b82818337600083830152505050565b60005b83811015612041578082015181840152602081019050612026565b83811115612050576000848401525b50505050565b6000600282049050600182168061206e57607f821691505b60208210811415612082576120816120e8565b5b50919050565b61209182612146565b810181811067ffffffffffffffff821117156120b0576120af612117565b5b80604052505050565b7f4e487b7100000000000000000000000000000000000000000000000000000000600052601160045260246000fd5b7f4e487b7100000000000000000000000000000000000000000000000000000000600052602260045260246000fd5b7f4e487b7100000000000000000000000000000000000000000000000000000000600052604160045260246000fd5b6000601f19601f8301169050919050565b7f4552433732313a207472616e7366657220746f206e6f6e20455243373231526560008201527f63656976657220696d706c656d656e7465720000000000000000000000000000602082015250565b7f4552433732313a20746f6b656e20616c7265616479206d696e74656400000000600082015250565b7f4552433732313a207472616e7366657220746f20746865207a65726f2061646460008201527f7265737300000000000000000000000000000000000000000000000000000000602082015250565b7f4552433732313a20617070726f766520746f2063616c6c657200000000000000600082015250565b7f4552433732313a206f70657261746f7220717565727920666f72206e6f6e657860008201527f697374656e7420746f6b656e0000000000000000000000000000000000000000602082015250565b7f4552433732313a20617070726f76652063616c6c6572206973206e6f74206f7760008201527f6e6572206e6f7220617070726f76656420666f7220616c6c0000000000000000602082015250565b7f4552433732313a2062616c616e636520717565727920666f7220746865207a6560008201527f726f206164647265737300000000000000000000000000000000000000000000602082015250565b7f4552433732313a206f776e657220717565727920666f72206e6f6e657869737460008201527f656e7420746f6b656e0000000000000000000000000000000000000000000000602082015250565b7f4552433732313a206d696e7420746f20746865207a65726f2061646472657373600082015250565b7f4552433732313a20617070726f76656420717565727920666f72206e6f6e657860008201527f697374656e7420746f6b656e0000000000000000000000000000000000000000602082015250565b7f4552433732313a207472616e73666572206f6620746f6b656e2074686174206960008201527f73206e6f74206f776e0000000000000000000000000000000000000000000000602082015250565b7f4552433732313a20617070726f76616c20746f2063757272656e74206f776e6560008201527f7200000000000000000000000000000000000000000000000000000000000000602082015250565b7f4552433732313a207472616e736665722063616c6c6572206973206e6f74206f60008201527f776e6572206e6f7220617070726f766564000000000000000000000000000000602082015250565b6124f181611fa0565b81146124fc57600080fd5b50565b61250881611fb2565b811461251357600080fd5b50565b61251f81611fbe565b811461252a57600080fd5b50565b6125368161200a565b811461254157600080fd5b5056fea2646970667358221220d25dc5340155ce410e8fa2c2d0085dc481110c0afbf1909d9c85774c00e5a9e764736f6c63430008010033",
  "immutableReferences": {},
  "source": "// SPDX-License-Identifier: MIT\npragma solidity ^0.8.0;\n\nimport \"@openzeppelin/contracts/token/ERC721/ERC721.sol\";\nimport \"@openzeppelin/contracts/utils/Counters.sol\";\n\ncontract NFTCollection is ERC721 {\n    using Counters for Counters.Counter;\n    Counters.Counter private _tokenIds;\n\n    //mapping for token URIs\n    mapping (uint256 => string) private _tokenURIs;\n\n    event NewMintedToken(uint256 tokenID, address userAddress, string tokenURI);\n\n    constructor() ERC721(\"NFTCollection\", \"NFTC\") {}\n\n    function _setTokenURI(uint256 tokenID, string memory _tokenURI) internal virtual {\n        _tokenURIs[tokenID] = _tokenURI;\n    }\n\n    function newItem(address userAddress, string memory _tokenURI) public {\n        _tokenIds.increment();\n\n        uint256 newItemId = _tokenIds.current();\n        _mint(userAddress, newItemId);\n        _setTokenURI(newItemId, _tokenURI);\n\n        emit NewMintedToken(newItemId, userAddress, _tokenURI);\n    }\n\n    function tokenURI(uint256 tokenID) public view virtual override returns (string memory){\n        return _tokenURIs[tokenID];\n    }\n}\n",
  "sourcePath": "/home/luca/Desktop/NFT-Marketplace/contracts/NFTCollection.sol",
  "compiler": {
    "name": "solc",
    "version": "0.8.1+commit.df193b15.Emscripten.clang"
  },
  "schemaVersion": "3.4.2",
  "updatedAt": "2021-08-25T00:18:43.151Z",
  "networkType": "ethereum",
  "devdoc": {
    "kind": "dev",
    "methods": {
      "approve(address,uint256)": {
        "details": "See {IERC721-approve}."
      },
      "balanceOf(address)": {
        "details": "See {IERC721-balanceOf}."
      },
      "getApproved(uint256)": {
        "details": "See {IERC721-getApproved}."
      },
      "isApprovedForAll(address,address)": {
        "details": "See {IERC721-isApprovedForAll}."
      },
      "name()": {
        "details": "See {IERC721Metadata-name}."
      },
      "ownerOf(uint256)": {
        "details": "See {IERC721-ownerOf}."
      },
      "safeTransferFrom(address,address,uint256)": {
        "details": "See {IERC721-safeTransferFrom}."
      },
      "safeTransferFrom(address,address,uint256,bytes)": {
        "details": "See {IERC721-safeTransferFrom}."
      },
      "setApprovalForAll(address,bool)": {
        "details": "See {IERC721-setApprovalForAll}."
      },
      "supportsInterface(bytes4)": {
        "details": "See {IERC165-supportsInterface}."
      },
      "symbol()": {
        "details": "See {IERC721Metadata-symbol}."
      },
      "transferFrom(address,address,uint256)": {
        "details": "See {IERC721-transferFrom}."
      }
    },
    "version": 1
  },
  "userdoc": {
    "kind": "user",
    "methods": {},
    "version": 1
  }
}