{
  "contractName": "NFTCollection",
  "abi": [
    {
      "inputs": [],
      "stateMutability": "nonpayable",
      "type": "constructor"
    },
    {
      "anonymous": false,
      "inputs": [
        {
          "indexed": true,
          "internalType": "address",
          "name": "owner",
          "type": "address"
        },
        {
          "indexed": true,
          "internalType": "address",
          "name": "approved",
          "type": "address"
        },
        {
          "indexed": true,
          "internalType": "uint256",
          "name": "tokenId",
          "type": "uint256"
        }
      ],
      "name": "Approval",
      "type": "event"
    },
    {
      "anonymous": false,
      "inputs": [
        {
          "indexed": true,
          "internalType": "address",
          "name": "owner",
          "type": "address"
        },
        {
          "indexed": true,
          "internalType": "address",
          "name": "operator",
          "type": "address"
        },
        {
          "indexed": false,
          "internalType": "bool",
          "name": "approved",
          "type": "bool"
        }
      ],
      "name": "ApprovalForAll",
      "type": "event"
    },
    {
      "anonymous": false,
      "inputs": [
        {
          "indexed": true,
          "internalType": "address",
          "name": "from",
          "type": "address"
        },
        {
          "indexed": true,
          "internalType": "address",
          "name": "to",
          "type": "address"
        },
        {
          "indexed": true,
          "internalType": "uint256",
          "name": "tokenId",
          "type": "uint256"
        }
      ],
      "name": "Transfer",
      "type": "event"
    },
    {
      "anonymous": false,
      "inputs": [
        {
          "indexed": false,
          "internalType": "uint256",
          "name": "tokenID",
          "type": "uint256"
        }
      ],
      "name": "burnedToken",
      "type": "event"
    },
    {
      "anonymous": false,
      "inputs": [
        {
          "indexed": false,
          "internalType": "uint256",
          "name": "tokenID",
          "type": "uint256"
        },
        {
          "indexed": false,
          "internalType": "address",
          "name": "userAddress",
          "type": "address"
        },
        {
          "indexed": false,
          "internalType": "string",
          "name": "tokenURI",
          "type": "string"
        }
      ],
      "name": "mintedToken",
      "type": "event"
    },
    {
      "inputs": [
        {
          "internalType": "address",
          "name": "to",
          "type": "address"
        },
        {
          "internalType": "uint256",
          "name": "tokenId",
          "type": "uint256"
        }
      ],
      "name": "approve",
      "outputs": [],
      "stateMutability": "nonpayable",
      "type": "function"
    },
    {
      "inputs": [
        {
          "internalType": "address",
          "name": "owner",
          "type": "address"
        }
      ],
      "name": "balanceOf",
      "outputs": [
        {
          "internalType": "uint256",
          "name": "",
          "type": "uint256"
        }
      ],
      "stateMutability": "view",
      "type": "function",
      "constant": true
    },
    {
      "inputs": [
        {
          "internalType": "uint256",
          "name": "tokenId",
          "type": "uint256"
        }
      ],
      "name": "getApproved",
      "outputs": [
        {
          "internalType": "address",
          "name": "",
          "type": "address"
        }
      ],
      "stateMutability": "view",
      "type": "function",
      "constant": true
    },
    {
      "inputs": [
        {
          "internalType": "address",
          "name": "owner",
          "type": "address"
        },
        {
          "internalType": "address",
          "name": "operator",
          "type": "address"
        }
      ],
      "name": "isApprovedForAll",
      "outputs": [
        {
          "internalType": "bool",
          "name": "",
          "type": "bool"
        }
      ],
      "stateMutability": "view",
      "type": "function",
      "constant": true
    },
    {
      "inputs": [],
      "name": "name",
      "outputs": [
        {
          "internalType": "string",
          "name": "",
          "type": "string"
        }
      ],
      "stateMutability": "view",
      "type": "function",
      "constant": true
    },
    {
      "inputs": [
        {
          "internalType": "uint256",
          "name": "tokenId",
          "type": "uint256"
        }
      ],
      "name": "ownerOf",
      "outputs": [
        {
          "internalType": "address",
          "name": "",
          "type": "address"
        }
      ],
      "stateMutability": "view",
      "type": "function",
      "constant": true
    },
    {
      "inputs": [
        {
          "internalType": "address",
          "name": "from",
          "type": "address"
        },
        {
          "internalType": "address",
          "name": "to",
          "type": "address"
        },
        {
          "internalType": "uint256",
          "name": "tokenId",
          "type": "uint256"
        }
      ],
      "name": "safeTransferFrom",
      "outputs": [],
      "stateMutability": "nonpayable",
      "type": "function"
    },
    {
      "inputs": [
        {
          "internalType": "address",
          "name": "from",
          "type": "address"
        },
        {
          "internalType": "address",
          "name": "to",
          "type": "address"
        },
        {
          "internalType": "uint256",
          "name": "tokenId",
          "type": "uint256"
        },
        {
          "internalType": "bytes",
          "name": "_data",
          "type": "bytes"
        }
      ],
      "name": "safeTransferFrom",
      "outputs": [],
      "stateMutability": "nonpayable",
      "type": "function"
    },
    {
      "inputs": [
        {
          "internalType": "address",
          "name": "operator",
          "type": "address"
        },
        {
          "internalType": "bool",
          "name": "approved",
          "type": "bool"
        }
      ],
      "name": "setApprovalForAll",
      "outputs": [],
      "stateMutability": "nonpayable",
      "type": "function"
    },
    {
      "inputs": [
        {
          "internalType": "bytes4",
          "name": "interfaceId",
          "type": "bytes4"
        }
      ],
      "name": "supportsInterface",
      "outputs": [
        {
          "internalType": "bool",
          "name": "",
          "type": "bool"
        }
      ],
      "stateMutability": "view",
      "type": "function",
      "constant": true
    },
    {
      "inputs": [],
      "name": "symbol",
      "outputs": [
        {
          "internalType": "string",
          "name": "",
          "type": "string"
        }
      ],
      "stateMutability": "view",
      "type": "function",
      "constant": true
    },
    {
      "inputs": [
        {
          "internalType": "address",
          "name": "from",
          "type": "address"
        },
        {
          "internalType": "address",
          "name": "to",
          "type": "address"
        },
        {
          "internalType": "uint256",
          "name": "tokenId",
          "type": "uint256"
        }
      ],
      "name": "transferFrom",
      "outputs": [],
      "stateMutability": "nonpayable",
      "type": "function"
    },
    {
      "inputs": [
        {
          "internalType": "address",
          "name": "userAddress",
          "type": "address"
        },
        {
          "internalType": "string",
          "name": "_tokenURI",
          "type": "string"
        }
      ],
      "name": "mintToken",
      "outputs": [],
      "stateMutability": "nonpayable",
      "type": "function"
    },
    {
      "inputs": [
        {
          "internalType": "uint256",
          "name": "tokenID",
          "type": "uint256"
        }
      ],
      "name": "burnToken",
      "outputs": [],
      "stateMutability": "nonpayable",
      "type": "function"
    },
    {
      "inputs": [
        {
          "internalType": "uint256",
          "name": "tokenID",
          "type": "uint256"
        }
      ],
      "name": "tokenURI",
      "outputs": [
        {
          "internalType": "string",
          "name": "",
          "type": "string"
        }
      ],
      "stateMutability": "view",
      "type": "function",
      "constant": true
    }
  ],
  "bytecode": "0x60806040523480156200001157600080fd5b506040518060400160405280600d81526020017f4e4654436f6c6c656374696f6e000000000000000000000000000000000000008152506040518060400160405280600481526020017f4e46544300000000000000000000000000000000000000000000000000000000815250816000908051906020019062000096929190620000b8565b508060019080519060200190620000af929190620000b8565b505050620001cd565b828054620000c69062000168565b90600052602060002090601f016020900481019282620000ea576000855562000136565b82601f106200010557805160ff191683800117855562000136565b8280016001018555821562000136579182015b828111156200013557825182559160200191906001019062000118565b5b50905062000145919062000149565b5090565b5b80821115620001645760008160009055506001016200014a565b5090565b600060028204905060018216806200018157607f821691505b602082108114156200019857620001976200019e565b5b50919050565b7f4e487b7100000000000000000000000000000000000000000000000000000000600052602260045260246000fd5b61287c80620001dd6000396000f3fe608060405234801561001057600080fd5b50600436106100f55760003560e01c80636352211e11610097578063a22cb46511610066578063a22cb46514610282578063b88d4fde1461029e578063c87b56dd146102ba578063e985e9c5146102ea576100f5565b80636352211e146101e857806370a08231146102185780637b47ec1a1461024857806395d89b4114610264576100f5565b8063095ea7b3116100d3578063095ea7b31461017857806323b872dd146101945780633d02d0c9146101b057806342842e0e146101cc576100f5565b806301ffc9a7146100fa57806306fdde031461012a578063081812fc14610148575b600080fd5b610114600480360381019061010f9190611b49565b61031a565b6040516101219190611eb4565b60405180910390f35b6101326103fc565b60405161013f9190611ecf565b60405180910390f35b610162600480360381019061015d9190611b9b565b61048e565b60405161016f9190611e4d565b60405180910390f35b610192600480360381019061018d9190611b0d565b610513565b005b6101ae60048036038101906101a991906119b3565b61062b565b005b6101ca60048036038101906101c59190611ab9565b61068b565b005b6101e660048036038101906101e191906119b3565b6106f7565b005b61020260048036038101906101fd9190611b9b565b610717565b60405161020f9190611e4d565b60405180910390f35b610232600480360381019061022d919061194e565b6107c9565b60405161023f91906120b1565b60405180910390f35b610262600480360381019061025d9190611b9b565b610881565b005b61026c610940565b6040516102799190611ecf565b60405180910390f35b61029c60048036038101906102979190611a7d565b6109d2565b005b6102b860048036038101906102b39190611a02565b610b53565b005b6102d460048036038101906102cf9190611b9b565b610bb5565b6040516102e19190611ecf565b60405180910390f35b61030460048036038101906102ff9190611977565b610c5a565b6040516103119190611eb4565b60405180910390f35b60007f80ac58cd000000000000000000000000000000000000000000000000000000007bffffffffffffffffffffffffffffffffffffffffffffffffffffffff1916827bffffffffffffffffffffffffffffffffffffffffffffffffffffffff191614806103e557507f5b5e139f000000000000000000000000000000000000000000000000000000007bffffffffffffffffffffffffffffffffffffffffffffffffffffffff1916827bffffffffffffffffffffffffffffffffffffffffffffffffffffffff1916145b806103f557506103f482610cee565b5b9050919050565b60606000805461040b90612309565b80601f016020809104026020016040519081016040528092919081815260200182805461043790612309565b80156104845780601f1061045957610100808354040283529160200191610484565b820191906000526020600020905b81548152906001019060200180831161046757829003601f168201915b5050505050905090565b600061049982610d58565b6104d8576040517f08c379a00000000000000000000000000000000000000000000000000000000081526004016104cf90612011565b60405180910390fd5b6004600083815260200190815260200160002060009054906101000a900473ffffffffffffffffffffffffffffffffffffffff169050919050565b600061051e82610717565b90508073ffffffffffffffffffffffffffffffffffffffff168373ffffffffffffffffffffffffffffffffffffffff16141561058f576040517f08c379a000000000000000000000000000000000000000000000000000000000815260040161058690612071565b60405180910390fd5b8073ffffffffffffffffffffffffffffffffffffffff166105ae610dc4565b73ffffffffffffffffffffffffffffffffffffffff1614806105dd57506105dc816105d7610dc4565b610c5a565b5b61061c576040517f08c379a000000000000000000000000000000000000000000000000000000000815260040161061390611f91565b60405180910390fd5b6106268383610dcc565b505050565b61063c610636610dc4565b82610e85565b61067b576040517f08c379a000000000000000000000000000000000000000000000000000000000815260040161067290612091565b60405180910390fd5b610686838383610f63565b505050565b61069560066111bf565b60006106a160066111d5565b90506106ad83826111e3565b6106b78183611201565b7fe6c04ba99ee309e1eb6ea1dac6557c2d4f4efac8775fb8d9c7c8439e4db340898184846040516106ea939291906120cc565b60405180910390a1505050565b61071283838360405180602001604052806000815250610b53565b505050565b6000806002600084815260200190815260200160002060009054906101000a900473ffffffffffffffffffffffffffffffffffffffff169050600073ffffffffffffffffffffffffffffffffffffffff168173ffffffffffffffffffffffffffffffffffffffff1614156107c0576040517f08c379a00000000000000000000000000000000000000000000000000000000081526004016107b790611fd1565b60405180910390fd5b80915050919050565b60008073ffffffffffffffffffffffffffffffffffffffff168273ffffffffffffffffffffffffffffffffffffffff16141561083a576040517f08c379a000000000000000000000000000000000000000000000000000000000815260040161083190611fb1565b60405180910390fd5b600360008373ffffffffffffffffffffffffffffffffffffffff1673ffffffffffffffffffffffffffffffffffffffff168152602001908152602001600020549050919050565b600061088c82610717565b90508073ffffffffffffffffffffffffffffffffffffffff163373ffffffffffffffffffffffffffffffffffffffff16146108fc576040517f08c379a00000000000000000000000000000000000000000000000000000000081526004016108f390612031565b60405180910390fd5b6109058261122d565b7f9e0635014de7b3aca66141315f2193f595b2e95f4a83ab649ed7dbe6e37f3ef88260405161093491906120b1565b60405180910390a15050565b60606001805461094f90612309565b80601f016020809104026020016040519081016040528092919081815260200182805461097b90612309565b80156109c85780601f1061099d576101008083540402835291602001916109c8565b820191906000526020600020905b8154815290600101906020018083116109ab57829003601f168201915b5050505050905090565b6109da610dc4565b73ffffffffffffffffffffffffffffffffffffffff168273ffffffffffffffffffffffffffffffffffffffff161415610a48576040517f08c379a0000000000000000000000000000000000000000000000000000000008152600401610a3f90611f51565b60405180910390fd5b8060056000610a55610dc4565b73ffffffffffffffffffffffffffffffffffffffff1673ffffffffffffffffffffffffffffffffffffffff16815260200190815260200160002060008473ffffffffffffffffffffffffffffffffffffffff1673ffffffffffffffffffffffffffffffffffffffff16815260200190815260200160002060006101000a81548160ff0219169083151502179055508173ffffffffffffffffffffffffffffffffffffffff16610b02610dc4565b73ffffffffffffffffffffffffffffffffffffffff167f17307eab39ab6107e8899845ad3d59bd9653f200f220920489ca2b5937696c3183604051610b479190611eb4565b60405180910390a35050565b610b64610b5e610dc4565b83610e85565b610ba3576040517f08c379a0000000000000000000000000000000000000000000000000000000008152600401610b9a90612091565b60405180910390fd5b610baf8484848461133e565b50505050565b6060600760008381526020019081526020016000208054610bd590612309565b80601f0160208091040260200160405190810160405280929190818152602001828054610c0190612309565b8015610c4e5780601f10610c2357610100808354040283529160200191610c4e565b820191906000526020600020905b815481529060010190602001808311610c3157829003601f168201915b50505050509050919050565b6000600560008473ffffffffffffffffffffffffffffffffffffffff1673ffffffffffffffffffffffffffffffffffffffff16815260200190815260200160002060008373ffffffffffffffffffffffffffffffffffffffff1673ffffffffffffffffffffffffffffffffffffffff16815260200190815260200160002060009054906101000a900460ff16905092915050565b60007f01ffc9a7000000000000000000000000000000000000000000000000000000007bffffffffffffffffffffffffffffffffffffffffffffffffffffffff1916827bffffffffffffffffffffffffffffffffffffffffffffffffffffffff1916149050919050565b60008073ffffffffffffffffffffffffffffffffffffffff166002600084815260200190815260200160002060009054906101000a900473ffffffffffffffffffffffffffffffffffffffff1673ffffffffffffffffffffffffffffffffffffffff1614159050919050565b600033905090565b816004600083815260200190815260200160002060006101000a81548173ffffffffffffffffffffffffffffffffffffffff021916908373ffffffffffffffffffffffffffffffffffffffff160217905550808273ffffffffffffffffffffffffffffffffffffffff16610e3f83610717565b73ffffffffffffffffffffffffffffffffffffffff167f8c5be1e5ebec7d5bd14f71427d1e84f3dd0314c0f7b2291e5b200ac8c7c3b92560405160405180910390a45050565b6000610e9082610d58565b610ecf576040517f08c379a0000000000000000000000000000000000000000000000000000000008152600401610ec690611f71565b60405180910390fd5b6000610eda83610717565b90508073ffffffffffffffffffffffffffffffffffffffff168473ffffffffffffffffffffffffffffffffffffffff161480610f4957508373ffffffffffffffffffffffffffffffffffffffff16610f318461048e565b73ffffffffffffffffffffffffffffffffffffffff16145b80610f5a5750610f598185610c5a565b5b91505092915050565b8273ffffffffffffffffffffffffffffffffffffffff16610f8382610717565b73ffffffffffffffffffffffffffffffffffffffff1614610fd9576040517f08c379a0000000000000000000000000000000000000000000000000000000008152600401610fd090612051565b60405180910390fd5b600073ffffffffffffffffffffffffffffffffffffffff168273ffffffffffffffffffffffffffffffffffffffff161415611049576040517f08c379a000000000000000000000000000000000000000000000000000000000815260040161104090611f31565b60405180910390fd5b61105483838361139a565b61105f600082610dcc565b6001600360008573ffffffffffffffffffffffffffffffffffffffff1673ffffffffffffffffffffffffffffffffffffffff16815260200190815260200160002060008282546110af919061221f565b925050819055506001600360008473ffffffffffffffffffffffffffffffffffffffff1673ffffffffffffffffffffffffffffffffffffffff168152602001908152602001600020600082825461110691906121c9565b92505081905550816002600083815260200190815260200160002060006101000a81548173ffffffffffffffffffffffffffffffffffffffff021916908373ffffffffffffffffffffffffffffffffffffffff160217905550808273ffffffffffffffffffffffffffffffffffffffff168473ffffffffffffffffffffffffffffffffffffffff167fddf252ad1be2c89b69c2b068fc378daa952ba7f163c4a11628f55a4df523b3ef60405160405180910390a4505050565b6001816000016000828254019250508190555050565b600081600001549050919050565b6111fd82826040518060200160405280600081525061139f565b5050565b80600760008481526020019081526020016000209080519060200190611228929190611772565b505050565b600061123882610717565b90506112468160008461139a565b611251600083610dcc565b6001600360008373ffffffffffffffffffffffffffffffffffffffff1673ffffffffffffffffffffffffffffffffffffffff16815260200190815260200160002060008282546112a1919061221f565b925050819055506002600083815260200190815260200160002060006101000a81549073ffffffffffffffffffffffffffffffffffffffff021916905581600073ffffffffffffffffffffffffffffffffffffffff168273ffffffffffffffffffffffffffffffffffffffff167fddf252ad1be2c89b69c2b068fc378daa952ba7f163c4a11628f55a4df523b3ef60405160405180910390a45050565b611349848484610f63565b611355848484846113fa565b611394576040517f08c379a000000000000000000000000000000000000000000000000000000000815260040161138b90611ef1565b60405180910390fd5b50505050565b505050565b6113a98383611591565b6113b660008484846113fa565b6113f5576040517f08c379a00000000000000000000000000000000000000000000000000000000081526004016113ec90611ef1565b60405180910390fd5b505050565b600061141b8473ffffffffffffffffffffffffffffffffffffffff1661175f565b15611584578373ffffffffffffffffffffffffffffffffffffffff1663150b7a02611444610dc4565b8786866040518563ffffffff1660e01b81526004016114669493929190611e68565b602060405180830381600087803b15801561148057600080fd5b505af19250505080156114b157506040513d601f19601f820116820180604052508101906114ae9190611b72565b60015b611534573d80600081146114e1576040519150601f19603f3d011682016040523d82523d6000602084013e6114e6565b606091505b5060008151141561152c576040517f08c379a000000000000000000000000000000000000000000000000000000000815260040161152390611ef1565b60405180910390fd5b805181602001fd5b63150b7a0260e01b7bffffffffffffffffffffffffffffffffffffffffffffffffffffffff1916817bffffffffffffffffffffffffffffffffffffffffffffffffffffffff191614915050611589565b600190505b949350505050565b600073ffffffffffffffffffffffffffffffffffffffff168273ffffffffffffffffffffffffffffffffffffffff161415611601576040517f08c379a00000000000000000000000000000000000000000000000000000000081526004016115f890611ff1565b60405180910390fd5b61160a81610d58565b1561164a576040517f08c379a000000000000000000000000000000000000000000000000000000000815260040161164190611f11565b60405180910390fd5b6116566000838361139a565b6001600360008473ffffffffffffffffffffffffffffffffffffffff1673ffffffffffffffffffffffffffffffffffffffff16815260200190815260200160002060008282546116a691906121c9565b92505081905550816002600083815260200190815260200160002060006101000a81548173ffffffffffffffffffffffffffffffffffffffff021916908373ffffffffffffffffffffffffffffffffffffffff160217905550808273ffffffffffffffffffffffffffffffffffffffff16600073ffffffffffffffffffffffffffffffffffffffff167fddf252ad1be2c89b69c2b068fc378daa952ba7f163c4a11628f55a4df523b3ef60405160405180910390a45050565b600080823b905060008111915050919050565b82805461177e90612309565b90600052602060002090601f0160209004810192826117a057600085556117e7565b82601f106117b957805160ff19168380011785556117e7565b828001600101855582156117e7579182015b828111156117e65782518255916020019190600101906117cb565b5b5090506117f491906117f8565b5090565b5b808211156118115760008160009055506001016117f9565b5090565b60006118286118238461212f565b61210a565b90508281526020810184848401111561184057600080fd5b61184b8482856122c7565b509392505050565b600061186661186184612160565b61210a565b90508281526020810184848401111561187e57600080fd5b6118898482856122c7565b509392505050565b6000813590506118a0816127ea565b92915050565b6000813590506118b581612801565b92915050565b6000813590506118ca81612818565b92915050565b6000815190506118df81612818565b92915050565b600082601f8301126118f657600080fd5b8135611906848260208601611815565b91505092915050565b600082601f83011261192057600080fd5b8135611930848260208601611853565b91505092915050565b6000813590506119488161282f565b92915050565b60006020828403121561196057600080fd5b600061196e84828501611891565b91505092915050565b6000806040838503121561198a57600080fd5b600061199885828601611891565b92505060206119a985828601611891565b9150509250929050565b6000806000606084860312156119c857600080fd5b60006119d686828701611891565b93505060206119e786828701611891565b92505060406119f886828701611939565b9150509250925092565b60008060008060808587031215611a1857600080fd5b6000611a2687828801611891565b9450506020611a3787828801611891565b9350506040611a4887828801611939565b925050606085013567ffffffffffffffff811115611a6557600080fd5b611a71878288016118e5565b91505092959194509250565b60008060408385031215611a9057600080fd5b6000611a9e85828601611891565b9250506020611aaf858286016118a6565b9150509250929050565b60008060408385031215611acc57600080fd5b6000611ada85828601611891565b925050602083013567ffffffffffffffff811115611af757600080fd5b611b038582860161190f565b9150509250929050565b60008060408385031215611b2057600080fd5b6000611b2e85828601611891565b9250506020611b3f85828601611939565b9150509250929050565b600060208284031215611b5b57600080fd5b6000611b69848285016118bb565b91505092915050565b600060208284031215611b8457600080fd5b6000611b92848285016118d0565b91505092915050565b600060208284031215611bad57600080fd5b6000611bbb84828501611939565b91505092915050565b611bcd81612253565b82525050565b611bdc81612265565b82525050565b6000611bed82612191565b611bf781856121a7565b9350611c078185602086016122d6565b611c10816123f9565b840191505092915050565b6000611c268261219c565b611c3081856121b8565b9350611c408185602086016122d6565b611c49816123f9565b840191505092915050565b6000611c616032836121b8565b9150611c6c8261240a565b604082019050919050565b6000611c84601c836121b8565b9150611c8f82612459565b602082019050919050565b6000611ca76024836121b8565b9150611cb282612482565b604082019050919050565b6000611cca6019836121b8565b9150611cd5826124d1565b602082019050919050565b6000611ced602c836121b8565b9150611cf8826124fa565b604082019050919050565b6000611d106038836121b8565b9150611d1b82612549565b604082019050919050565b6000611d33602a836121b8565b9150611d3e82612598565b604082019050919050565b6000611d566029836121b8565b9150611d61826125e7565b604082019050919050565b6000611d796020836121b8565b9150611d8482612636565b602082019050919050565b6000611d9c602c836121b8565b9150611da78261265f565b604082019050919050565b6000611dbf6021836121b8565b9150611dca826126ae565b604082019050919050565b6000611de26029836121b8565b9150611ded826126fd565b604082019050919050565b6000611e056021836121b8565b9150611e108261274c565b604082019050919050565b6000611e286031836121b8565b9150611e338261279b565b604082019050919050565b611e47816122bd565b82525050565b6000602082019050611e626000830184611bc4565b92915050565b6000608082019050611e7d6000830187611bc4565b611e8a6020830186611bc4565b611e976040830185611e3e565b8181036060830152611ea98184611be2565b905095945050505050565b6000602082019050611ec96000830184611bd3565b92915050565b60006020820190508181036000830152611ee98184611c1b565b905092915050565b60006020820190508181036000830152611f0a81611c54565b9050919050565b60006020820190508181036000830152611f2a81611c77565b9050919050565b60006020820190508181036000830152611f4a81611c9a565b9050919050565b60006020820190508181036000830152611f6a81611cbd565b9050919050565b60006020820190508181036000830152611f8a81611ce0565b9050919050565b60006020820190508181036000830152611faa81611d03565b9050919050565b60006020820190508181036000830152611fca81611d26565b9050919050565b60006020820190508181036000830152611fea81611d49565b9050919050565b6000602082019050818103600083015261200a81611d6c565b9050919050565b6000602082019050818103600083015261202a81611d8f565b9050919050565b6000602082019050818103600083015261204a81611db2565b9050919050565b6000602082019050818103600083015261206a81611dd5565b9050919050565b6000602082019050818103600083015261208a81611df8565b9050919050565b600060208201905081810360008301526120aa81611e1b565b9050919050565b60006020820190506120c66000830184611e3e565b92915050565b60006060820190506120e16000830186611e3e565b6120ee6020830185611bc4565b81810360408301526121008184611c1b565b9050949350505050565b6000612114612125565b9050612120828261233b565b919050565b6000604051905090565b600067ffffffffffffffff82111561214a576121496123ca565b5b612153826123f9565b9050602081019050919050565b600067ffffffffffffffff82111561217b5761217a6123ca565b5b612184826123f9565b9050602081019050919050565b600081519050919050565b600081519050919050565b600082825260208201905092915050565b600082825260208201905092915050565b60006121d4826122bd565b91506121df836122bd565b9250827fffffffffffffffffffffffffffffffffffffffffffffffffffffffffffffffff038211156122145761221361236c565b5b828201905092915050565b600061222a826122bd565b9150612235836122bd565b9250828210156122485761224761236c565b5b828203905092915050565b600061225e8261229d565b9050919050565b60008115159050919050565b60007fffffffff0000000000000000000000000000000000000000000000000000000082169050919050565b600073ffffffffffffffffffffffffffffffffffffffff82169050919050565b6000819050919050565b82818337600083830152505050565b60005b838110156122f45780820151818401526020810190506122d9565b83811115612303576000848401525b50505050565b6000600282049050600182168061232157607f821691505b602082108114156123355761233461239b565b5b50919050565b612344826123f9565b810181811067ffffffffffffffff82111715612363576123626123ca565b5b80604052505050565b7f4e487b7100000000000000000000000000000000000000000000000000000000600052601160045260246000fd5b7f4e487b7100000000000000000000000000000000000000000000000000000000600052602260045260246000fd5b7f4e487b7100000000000000000000000000000000000000000000000000000000600052604160045260246000fd5b6000601f19601f8301169050919050565b7f4552433732313a207472616e7366657220746f206e6f6e20455243373231526560008201527f63656976657220696d706c656d656e7465720000000000000000000000000000602082015250565b7f4552433732313a20746f6b656e20616c7265616479206d696e74656400000000600082015250565b7f4552433732313a207472616e7366657220746f20746865207a65726f2061646460008201527f7265737300000000000000000000000000000000000000000000000000000000602082015250565b7f4552433732313a20617070726f766520746f2063616c6c657200000000000000600082015250565b7f4552433732313a206f70657261746f7220717565727920666f72206e6f6e657860008201527f697374656e7420746f6b656e0000000000000000000000000000000000000000602082015250565b7f4552433732313a20617070726f76652063616c6c6572206973206e6f74206f7760008201527f6e6572206e6f7220617070726f76656420666f7220616c6c0000000000000000602082015250565b7f4552433732313a2062616c616e636520717565727920666f7220746865207a6560008201527f726f206164647265737300000000000000000000000000000000000000000000602082015250565b7f4552433732313a206f776e657220717565727920666f72206e6f6e657869737460008201527f656e7420746f6b656e0000000000000000000000000000000000000000000000602082015250565b7f4552433732313a206d696e7420746f20746865207a65726f2061646472657373600082015250565b7f4552433732313a20617070726f76656420717565727920666f72206e6f6e657860008201527f697374656e7420746f6b656e0000000000000000000000000000000000000000602082015250565b7f596f7520617265206e6f7420746865206f776e6572206f662074686973204e4660008201527f5400000000000000000000000000000000000000000000000000000000000000602082015250565b7f4552433732313a207472616e73666572206f6620746f6b656e2074686174206960008201527f73206e6f74206f776e0000000000000000000000000000000000000000000000602082015250565b7f4552433732313a20617070726f76616c20746f2063757272656e74206f776e6560008201527f7200000000000000000000000000000000000000000000000000000000000000602082015250565b7f4552433732313a207472616e736665722063616c6c6572206973206e6f74206f60008201527f776e6572206e6f7220617070726f766564000000000000000000000000000000602082015250565b6127f381612253565b81146127fe57600080fd5b50565b61280a81612265565b811461281557600080fd5b50565b61282181612271565b811461282c57600080fd5b50565b612838816122bd565b811461284357600080fd5b5056fea26469706673582212207229e2b96ff119172da0f8006bf8b4e528984392c4b081d5efc443c12908723064736f6c63430008010033",
  "immutableReferences": {},
  "source": "// SPDX-License-Identifier: MIT\npragma solidity ^0.8.0;\n\nimport \"@openzeppelin/contracts/token/ERC721/ERC721.sol\";\nimport \"@openzeppelin/contracts/utils/Counters.sol\";\n\ncontract NFTCollection is ERC721 {\n    using Counters for Counters.Counter;\n    Counters.Counter private _tokenIds;\n\n    //mapping for token URIs\n    mapping (uint256 => string) private _tokenURIs;\n\n    event mintedToken(uint256 tokenID, address userAddress, string tokenURI);\n    event burnedToken(uint256 tokenID);\n\n    constructor() ERC721(\"NFTCollection\", \"NFTC\") {}\n\n    function _setTokenURI(uint256 tokenID, string memory _tokenURI) internal virtual {\n        _tokenURIs[tokenID] = _tokenURI;\n    }\n\n    function mintToken(address userAddress, string memory _tokenURI) public {\n        _tokenIds.increment();\n\n        uint256 newTokenId = _tokenIds.current();\n        _safeMint(userAddress, newTokenId);\n        _setTokenURI(newTokenId, _tokenURI);\n\n        emit mintedToken(newTokenId, userAddress, _tokenURI);\n    }\n\n    function burnToken(uint256 tokenID) public {\n        address owner = ERC721.ownerOf(tokenID);\n        require(msg.sender == owner, \"You are not the owner of this NFT\");\n        _burn(tokenID);\n        emit burnedToken(tokenID);\n    }\n\n    function tokenURI(uint256 tokenID) public view virtual override returns (string memory){\n        return _tokenURIs[tokenID];\n    }\n\n\n}\n",
  "sourcePath": "/home/luca/Desktop/NFT-Marketplace/contracts/NFTCollection.sol",
  "compiler": {
    "name": "solc",
    "version": "0.8.1+commit.df193b15.Emscripten.clang"
  },
  "schemaVersion": "3.4.2",
  "updatedAt": "2021-08-30T19:20:31.105Z",
  "networkType": "ethereum",
  "devdoc": {
    "kind": "dev",
    "methods": {
      "approve(address,uint256)": {
        "details": "See {IERC721-approve}."
      },
      "balanceOf(address)": {
        "details": "See {IERC721-balanceOf}."
      },
      "getApproved(uint256)": {
        "details": "See {IERC721-getApproved}."
      },
      "isApprovedForAll(address,address)": {
        "details": "See {IERC721-isApprovedForAll}."
      },
      "name()": {
        "details": "See {IERC721Metadata-name}."
      },
      "ownerOf(uint256)": {
        "details": "See {IERC721-ownerOf}."
      },
      "safeTransferFrom(address,address,uint256)": {
        "details": "See {IERC721-safeTransferFrom}."
      },
      "safeTransferFrom(address,address,uint256,bytes)": {
        "details": "See {IERC721-safeTransferFrom}."
      },
      "setApprovalForAll(address,bool)": {
        "details": "See {IERC721-setApprovalForAll}."
      },
      "supportsInterface(bytes4)": {
        "details": "See {IERC165-supportsInterface}."
      },
      "symbol()": {
        "details": "See {IERC721Metadata-symbol}."
      },
      "transferFrom(address,address,uint256)": {
        "details": "See {IERC721-transferFrom}."
      }
    },
    "version": 1
  },
  "userdoc": {
    "kind": "user",
    "methods": {},
    "version": 1
  }
}