{
  "contractName": "NFTCollection",
  "abi": [
    {
      "inputs": [],
      "stateMutability": "nonpayable",
      "type": "constructor"
    },
    {
      "anonymous": false,
      "inputs": [
        {
          "indexed": true,
          "internalType": "address",
          "name": "owner",
          "type": "address"
        },
        {
          "indexed": true,
          "internalType": "address",
          "name": "approved",
          "type": "address"
        },
        {
          "indexed": true,
          "internalType": "uint256",
          "name": "tokenId",
          "type": "uint256"
        }
      ],
      "name": "Approval",
      "type": "event"
    },
    {
      "anonymous": false,
      "inputs": [
        {
          "indexed": true,
          "internalType": "address",
          "name": "owner",
          "type": "address"
        },
        {
          "indexed": true,
          "internalType": "address",
          "name": "operator",
          "type": "address"
        },
        {
          "indexed": false,
          "internalType": "bool",
          "name": "approved",
          "type": "bool"
        }
      ],
      "name": "ApprovalForAll",
      "type": "event"
    },
    {
      "anonymous": false,
      "inputs": [
        {
          "indexed": true,
          "internalType": "address",
          "name": "from",
          "type": "address"
        },
        {
          "indexed": true,
          "internalType": "address",
          "name": "to",
          "type": "address"
        },
        {
          "indexed": true,
          "internalType": "uint256",
          "name": "tokenId",
          "type": "uint256"
        }
      ],
      "name": "Transfer",
      "type": "event"
    },
    {
      "anonymous": false,
      "inputs": [
        {
          "indexed": false,
          "internalType": "uint256",
          "name": "tokenID",
          "type": "uint256"
        },
        {
          "indexed": false,
          "internalType": "address",
          "name": "userAddress",
          "type": "address"
        },
        {
          "indexed": false,
          "internalType": "string",
          "name": "tokenURI",
          "type": "string"
        },
        {
          "indexed": false,
          "internalType": "string",
          "name": "title",
          "type": "string"
        }
      ],
      "name": "burnedToken",
      "type": "event"
    },
    {
      "anonymous": false,
      "inputs": [
        {
          "indexed": false,
          "internalType": "uint256",
          "name": "tokenID",
          "type": "uint256"
        },
        {
          "indexed": false,
          "internalType": "address",
          "name": "userAddress",
          "type": "address"
        },
        {
          "indexed": false,
          "internalType": "string",
          "name": "tokenURI",
          "type": "string"
        },
        {
          "indexed": false,
          "internalType": "string",
          "name": "title",
          "type": "string"
        }
      ],
      "name": "mintedToken",
      "type": "event"
    },
    {
      "inputs": [
        {
          "internalType": "address",
          "name": "to",
          "type": "address"
        },
        {
          "internalType": "uint256",
          "name": "tokenId",
          "type": "uint256"
        }
      ],
      "name": "approve",
      "outputs": [],
      "stateMutability": "nonpayable",
      "type": "function"
    },
    {
      "inputs": [
        {
          "internalType": "address",
          "name": "owner",
          "type": "address"
        }
      ],
      "name": "balanceOf",
      "outputs": [
        {
          "internalType": "uint256",
          "name": "",
          "type": "uint256"
        }
      ],
      "stateMutability": "view",
      "type": "function",
      "constant": true
    },
    {
      "inputs": [
        {
          "internalType": "uint256",
          "name": "tokenId",
          "type": "uint256"
        }
      ],
      "name": "getApproved",
      "outputs": [
        {
          "internalType": "address",
          "name": "",
          "type": "address"
        }
      ],
      "stateMutability": "view",
      "type": "function",
      "constant": true
    },
    {
      "inputs": [
        {
          "internalType": "address",
          "name": "owner",
          "type": "address"
        },
        {
          "internalType": "address",
          "name": "operator",
          "type": "address"
        }
      ],
      "name": "isApprovedForAll",
      "outputs": [
        {
          "internalType": "bool",
          "name": "",
          "type": "bool"
        }
      ],
      "stateMutability": "view",
      "type": "function",
      "constant": true
    },
    {
      "inputs": [],
      "name": "name",
      "outputs": [
        {
          "internalType": "string",
          "name": "",
          "type": "string"
        }
      ],
      "stateMutability": "view",
      "type": "function",
      "constant": true
    },
    {
      "inputs": [
        {
          "internalType": "uint256",
          "name": "tokenId",
          "type": "uint256"
        }
      ],
      "name": "ownerOf",
      "outputs": [
        {
          "internalType": "address",
          "name": "",
          "type": "address"
        }
      ],
      "stateMutability": "view",
      "type": "function",
      "constant": true
    },
    {
      "inputs": [
        {
          "internalType": "address",
          "name": "from",
          "type": "address"
        },
        {
          "internalType": "address",
          "name": "to",
          "type": "address"
        },
        {
          "internalType": "uint256",
          "name": "tokenId",
          "type": "uint256"
        }
      ],
      "name": "safeTransferFrom",
      "outputs": [],
      "stateMutability": "nonpayable",
      "type": "function"
    },
    {
      "inputs": [
        {
          "internalType": "address",
          "name": "from",
          "type": "address"
        },
        {
          "internalType": "address",
          "name": "to",
          "type": "address"
        },
        {
          "internalType": "uint256",
          "name": "tokenId",
          "type": "uint256"
        },
        {
          "internalType": "bytes",
          "name": "_data",
          "type": "bytes"
        }
      ],
      "name": "safeTransferFrom",
      "outputs": [],
      "stateMutability": "nonpayable",
      "type": "function"
    },
    {
      "inputs": [
        {
          "internalType": "address",
          "name": "operator",
          "type": "address"
        },
        {
          "internalType": "bool",
          "name": "approved",
          "type": "bool"
        }
      ],
      "name": "setApprovalForAll",
      "outputs": [],
      "stateMutability": "nonpayable",
      "type": "function"
    },
    {
      "inputs": [
        {
          "internalType": "bytes4",
          "name": "interfaceId",
          "type": "bytes4"
        }
      ],
      "name": "supportsInterface",
      "outputs": [
        {
          "internalType": "bool",
          "name": "",
          "type": "bool"
        }
      ],
      "stateMutability": "view",
      "type": "function",
      "constant": true
    },
    {
      "inputs": [],
      "name": "symbol",
      "outputs": [
        {
          "internalType": "string",
          "name": "",
          "type": "string"
        }
      ],
      "stateMutability": "view",
      "type": "function",
      "constant": true
    },
    {
      "inputs": [
        {
          "internalType": "address",
          "name": "from",
          "type": "address"
        },
        {
          "internalType": "address",
          "name": "to",
          "type": "address"
        },
        {
          "internalType": "uint256",
          "name": "tokenId",
          "type": "uint256"
        }
      ],
      "name": "transferFrom",
      "outputs": [],
      "stateMutability": "nonpayable",
      "type": "function"
    },
    {
      "inputs": [
        {
          "internalType": "address",
          "name": "userAddress",
          "type": "address"
        },
        {
          "internalType": "string",
          "name": "_title",
          "type": "string"
        },
        {
          "internalType": "string",
          "name": "_tokenURI",
          "type": "string"
        }
      ],
      "name": "mintToken",
      "outputs": [],
      "stateMutability": "nonpayable",
      "type": "function"
    },
    {
      "inputs": [
        {
          "internalType": "uint256",
          "name": "tokenID",
          "type": "uint256"
        }
      ],
      "name": "burnToken",
      "outputs": [],
      "stateMutability": "nonpayable",
      "type": "function"
    },
    {
      "inputs": [
        {
          "internalType": "uint256",
          "name": "tokenID",
          "type": "uint256"
        }
      ],
      "name": "tokenURI",
      "outputs": [
        {
          "internalType": "string",
          "name": "",
          "type": "string"
        }
      ],
      "stateMutability": "view",
      "type": "function",
      "constant": true
    }
  ],
  "bytecode": "0x60806040523480156200001157600080fd5b506040518060400160405280600d81526020017f4e4654436f6c6c656374696f6e000000000000000000000000000000000000008152506040518060400160405280600481526020017f4e46544300000000000000000000000000000000000000000000000000000000815250816000908051906020019062000096929190620000b8565b508060019080519060200190620000af929190620000b8565b505050620001cd565b828054620000c69062000168565b90600052602060002090601f016020900481019282620000ea576000855562000136565b82601f106200010557805160ff191683800117855562000136565b8280016001018555821562000136579182015b828111156200013557825182559160200191906001019062000118565b5b50905062000145919062000149565b5090565b5b80821115620001645760008160009055506001016200014a565b5090565b600060028204905060018216806200018157607f821691505b602082108114156200019857620001976200019e565b5b50919050565b7f4e487b7100000000000000000000000000000000000000000000000000000000600052602260045260246000fd5b612ac580620001dd6000396000f3fe608060405234801561001057600080fd5b50600436106100f55760003560e01c80636352211e11610097578063a22cb46511610066578063a22cb46514610282578063b88d4fde1461029e578063c87b56dd146102ba578063e985e9c5146102ea576100f5565b80636352211e146101e857806370a08231146102185780637b47ec1a1461024857806395d89b4114610264576100f5565b8063095ea7b3116100d3578063095ea7b31461017857806323b872dd146101945780632e689c3f146101b057806342842e0e146101cc576100f5565b806301ffc9a7146100fa57806306fdde031461012a578063081812fc14610148575b600080fd5b610114600480360381019061010f9190611c03565b61031a565b6040516101219190612011565b60405180910390f35b6101326103fc565b60405161013f919061202c565b60405180910390f35b610162600480360381019061015d9190611c55565b61048e565b60405161016f9190611faa565b60405180910390f35b610192600480360381019061018d9190611bc7565b610513565b005b6101ae60048036038101906101a99190611a42565b61062b565b005b6101ca60048036038101906101c59190611b48565b61068b565b005b6101e660048036038101906101e19190611a42565b610740565b005b61020260048036038101906101fd9190611c55565b610760565b60405161020f9190611faa565b60405180910390f35b610232600480360381019061022d91906119dd565b610812565b60405161023f919061222e565b60405180910390f35b610262600480360381019061025d9190611c55565b6108ca565b005b61026c6109b3565b604051610279919061202c565b60405180910390f35b61029c60048036038101906102979190611b0c565b610a45565b005b6102b860048036038101906102b39190611a91565b610bc6565b005b6102d460048036038101906102cf9190611c55565b610c28565b6040516102e1919061202c565b60405180910390f35b61030460048036038101906102ff9190611a06565b610d15565b6040516103119190612011565b60405180910390f35b60007f80ac58cd000000000000000000000000000000000000000000000000000000007bffffffffffffffffffffffffffffffffffffffffffffffffffffffff1916827bffffffffffffffffffffffffffffffffffffffffffffffffffffffff191614806103e557507f5b5e139f000000000000000000000000000000000000000000000000000000007bffffffffffffffffffffffffffffffffffffffffffffffffffffffff1916827bffffffffffffffffffffffffffffffffffffffffffffffffffffffff1916145b806103f557506103f482610da9565b5b9050919050565b60606000805461040b90612503565b80601f016020809104026020016040519081016040528092919081815260200182805461043790612503565b80156104845780601f1061045957610100808354040283529160200191610484565b820191906000526020600020905b81548152906001019060200180831161046757829003601f168201915b5050505050905090565b600061049982610e13565b6104d8576040517f08c379a00000000000000000000000000000000000000000000000000000000081526004016104cf9061216e565b60405180910390fd5b6004600083815260200190815260200160002060009054906101000a900473ffffffffffffffffffffffffffffffffffffffff169050919050565b600061051e82610760565b90508073ffffffffffffffffffffffffffffffffffffffff168373ffffffffffffffffffffffffffffffffffffffff16141561058f576040517f08c379a0000000000000000000000000000000000000000000000000000000008152600401610586906121ee565b60405180910390fd5b8073ffffffffffffffffffffffffffffffffffffffff166105ae610e7f565b73ffffffffffffffffffffffffffffffffffffffff1614806105dd57506105dc816105d7610e7f565b610d15565b5b61061c576040517f08c379a0000000000000000000000000000000000000000000000000000000008152600401610613906120ee565b60405180910390fd5b6106268383610e87565b505050565b61063c610636610e7f565b82610f40565b61067b576040517f08c379a00000000000000000000000000000000000000000000000000000000081526004016106729061220e565b60405180910390fd5b61068683838361101e565b505050565b610695600661127a565b60006106a16006611290565b9050816007600083815260200190815260200160002090805190602001906106ca929190611801565b506106d5848261129e565b826008600083815260200190815260200160002090805190602001906106fc929190611801565b507f4252e07f80d03bb1a4bb4405ce94e3ee0e57f4584a5678ee92da2c60c727a6db818584866040516107329493929190612249565b60405180910390a150505050565b61075b83838360405180602001604052806000815250610bc6565b505050565b6000806002600084815260200190815260200160002060009054906101000a900473ffffffffffffffffffffffffffffffffffffffff169050600073ffffffffffffffffffffffffffffffffffffffff168173ffffffffffffffffffffffffffffffffffffffff161415610809576040517f08c379a00000000000000000000000000000000000000000000000000000000081526004016108009061212e565b60405180910390fd5b80915050919050565b60008073ffffffffffffffffffffffffffffffffffffffff168273ffffffffffffffffffffffffffffffffffffffff161415610883576040517f08c379a000000000000000000000000000000000000000000000000000000000815260040161087a9061210e565b60405180910390fd5b600360008373ffffffffffffffffffffffffffffffffffffffff1673ffffffffffffffffffffffffffffffffffffffff168152602001908152602001600020549050919050565b60006108d582610760565b90508073ffffffffffffffffffffffffffffffffffffffff163373ffffffffffffffffffffffffffffffffffffffff1614610945576040517f08c379a000000000000000000000000000000000000000000000000000000000815260040161093c9061218e565b60405180910390fd5b61094e826112bc565b7f4eaf6d9d78b2b92cb5ea90b9a49739b4db848e387b56f95e73d97e1d21035079828260076000868152602001908152602001600020600860008781526020019081526020016000206040516109a7949392919061229c565b60405180910390a15050565b6060600180546109c290612503565b80601f01602080910402602001604051908101604052809291908181526020018280546109ee90612503565b8015610a3b5780601f10610a1057610100808354040283529160200191610a3b565b820191906000526020600020905b815481529060010190602001808311610a1e57829003601f168201915b5050505050905090565b610a4d610e7f565b73ffffffffffffffffffffffffffffffffffffffff168273ffffffffffffffffffffffffffffffffffffffff161415610abb576040517f08c379a0000000000000000000000000000000000000000000000000000000008152600401610ab2906120ae565b60405180910390fd5b8060056000610ac8610e7f565b73ffffffffffffffffffffffffffffffffffffffff1673ffffffffffffffffffffffffffffffffffffffff16815260200190815260200160002060008473ffffffffffffffffffffffffffffffffffffffff1673ffffffffffffffffffffffffffffffffffffffff16815260200190815260200160002060006101000a81548160ff0219169083151502179055508173ffffffffffffffffffffffffffffffffffffffff16610b75610e7f565b73ffffffffffffffffffffffffffffffffffffffff167f17307eab39ab6107e8899845ad3d59bd9653f200f220920489ca2b5937696c3183604051610bba9190612011565b60405180910390a35050565b610bd7610bd1610e7f565b83610f40565b610c16576040517f08c379a0000000000000000000000000000000000000000000000000000000008152600401610c0d9061220e565b60405180910390fd5b610c22848484846113cd565b50505050565b6060610c3382610e13565b610c72576040517f08c379a0000000000000000000000000000000000000000000000000000000008152600401610c69906121ce565b60405180910390fd5b600760008381526020019081526020016000208054610c9090612503565b80601f0160208091040260200160405190810160405280929190818152602001828054610cbc90612503565b8015610d095780601f10610cde57610100808354040283529160200191610d09565b820191906000526020600020905b815481529060010190602001808311610cec57829003601f168201915b50505050509050919050565b6000600560008473ffffffffffffffffffffffffffffffffffffffff1673ffffffffffffffffffffffffffffffffffffffff16815260200190815260200160002060008373ffffffffffffffffffffffffffffffffffffffff1673ffffffffffffffffffffffffffffffffffffffff16815260200190815260200160002060009054906101000a900460ff16905092915050565b60007f01ffc9a7000000000000000000000000000000000000000000000000000000007bffffffffffffffffffffffffffffffffffffffffffffffffffffffff1916827bffffffffffffffffffffffffffffffffffffffffffffffffffffffff1916149050919050565b60008073ffffffffffffffffffffffffffffffffffffffff166002600084815260200190815260200160002060009054906101000a900473ffffffffffffffffffffffffffffffffffffffff1673ffffffffffffffffffffffffffffffffffffffff1614159050919050565b600033905090565b816004600083815260200190815260200160002060006101000a81548173ffffffffffffffffffffffffffffffffffffffff021916908373ffffffffffffffffffffffffffffffffffffffff160217905550808273ffffffffffffffffffffffffffffffffffffffff16610efa83610760565b73ffffffffffffffffffffffffffffffffffffffff167f8c5be1e5ebec7d5bd14f71427d1e84f3dd0314c0f7b2291e5b200ac8c7c3b92560405160405180910390a45050565b6000610f4b82610e13565b610f8a576040517f08c379a0000000000000000000000000000000000000000000000000000000008152600401610f81906120ce565b60405180910390fd5b6000610f9583610760565b90508073ffffffffffffffffffffffffffffffffffffffff168473ffffffffffffffffffffffffffffffffffffffff16148061100457508373ffffffffffffffffffffffffffffffffffffffff16610fec8461048e565b73ffffffffffffffffffffffffffffffffffffffff16145b8061101557506110148185610d15565b5b91505092915050565b8273ffffffffffffffffffffffffffffffffffffffff1661103e82610760565b73ffffffffffffffffffffffffffffffffffffffff1614611094576040517f08c379a000000000000000000000000000000000000000000000000000000000815260040161108b906121ae565b60405180910390fd5b600073ffffffffffffffffffffffffffffffffffffffff168273ffffffffffffffffffffffffffffffffffffffff161415611104576040517f08c379a00000000000000000000000000000000000000000000000000000000081526004016110fb9061208e565b60405180910390fd5b61110f838383611429565b61111a600082610e87565b6001600360008573ffffffffffffffffffffffffffffffffffffffff1673ffffffffffffffffffffffffffffffffffffffff168152602001908152602001600020600082825461116a9190612419565b925050819055506001600360008473ffffffffffffffffffffffffffffffffffffffff1673ffffffffffffffffffffffffffffffffffffffff16815260200190815260200160002060008282546111c191906123c3565b92505081905550816002600083815260200190815260200160002060006101000a81548173ffffffffffffffffffffffffffffffffffffffff021916908373ffffffffffffffffffffffffffffffffffffffff160217905550808273ffffffffffffffffffffffffffffffffffffffff168473ffffffffffffffffffffffffffffffffffffffff167fddf252ad1be2c89b69c2b068fc378daa952ba7f163c4a11628f55a4df523b3ef60405160405180910390a4505050565b6001816000016000828254019250508190555050565b600081600001549050919050565b6112b882826040518060200160405280600081525061142e565b5050565b60006112c782610760565b90506112d581600084611429565b6112e0600083610e87565b6001600360008373ffffffffffffffffffffffffffffffffffffffff1673ffffffffffffffffffffffffffffffffffffffff16815260200190815260200160002060008282546113309190612419565b925050819055506002600083815260200190815260200160002060006101000a81549073ffffffffffffffffffffffffffffffffffffffff021916905581600073ffffffffffffffffffffffffffffffffffffffff168273ffffffffffffffffffffffffffffffffffffffff167fddf252ad1be2c89b69c2b068fc378daa952ba7f163c4a11628f55a4df523b3ef60405160405180910390a45050565b6113d884848461101e565b6113e484848484611489565b611423576040517f08c379a000000000000000000000000000000000000000000000000000000000815260040161141a9061204e565b60405180910390fd5b50505050565b505050565b6114388383611620565b6114456000848484611489565b611484576040517f08c379a000000000000000000000000000000000000000000000000000000000815260040161147b9061204e565b60405180910390fd5b505050565b60006114aa8473ffffffffffffffffffffffffffffffffffffffff166117ee565b15611613578373ffffffffffffffffffffffffffffffffffffffff1663150b7a026114d3610e7f565b8786866040518563ffffffff1660e01b81526004016114f59493929190611fc5565b602060405180830381600087803b15801561150f57600080fd5b505af192505050801561154057506040513d601f19601f8201168201806040525081019061153d9190611c2c565b60015b6115c3573d8060008114611570576040519150601f19603f3d011682016040523d82523d6000602084013e611575565b606091505b506000815114156115bb576040517f08c379a00000000000000000000000000000000000000000000000000000000081526004016115b29061204e565b60405180910390fd5b805181602001fd5b63150b7a0260e01b7bffffffffffffffffffffffffffffffffffffffffffffffffffffffff1916817bffffffffffffffffffffffffffffffffffffffffffffffffffffffff191614915050611618565b600190505b949350505050565b600073ffffffffffffffffffffffffffffffffffffffff168273ffffffffffffffffffffffffffffffffffffffff161415611690576040517f08c379a00000000000000000000000000000000000000000000000000000000081526004016116879061214e565b60405180910390fd5b61169981610e13565b156116d9576040517f08c379a00000000000000000000000000000000000000000000000000000000081526004016116d09061206e565b60405180910390fd5b6116e560008383611429565b6001600360008473ffffffffffffffffffffffffffffffffffffffff1673ffffffffffffffffffffffffffffffffffffffff168152602001908152602001600020600082825461173591906123c3565b92505081905550816002600083815260200190815260200160002060006101000a81548173ffffffffffffffffffffffffffffffffffffffff021916908373ffffffffffffffffffffffffffffffffffffffff160217905550808273ffffffffffffffffffffffffffffffffffffffff16600073ffffffffffffffffffffffffffffffffffffffff167fddf252ad1be2c89b69c2b068fc378daa952ba7f163c4a11628f55a4df523b3ef60405160405180910390a45050565b600080823b905060008111915050919050565b82805461180d90612503565b90600052602060002090601f01602090048101928261182f5760008555611876565b82601f1061184857805160ff1916838001178555611876565b82800160010185558215611876579182015b8281111561187557825182559160200191906001019061185a565b5b5090506118839190611887565b5090565b5b808211156118a0576000816000905550600101611888565b5090565b60006118b76118b284612314565b6122ef565b9050828152602081018484840111156118cf57600080fd5b6118da8482856124c1565b509392505050565b60006118f56118f084612345565b6122ef565b90508281526020810184848401111561190d57600080fd5b6119188482856124c1565b509392505050565b60008135905061192f81612a33565b92915050565b60008135905061194481612a4a565b92915050565b60008135905061195981612a61565b92915050565b60008151905061196e81612a61565b92915050565b600082601f83011261198557600080fd5b81356119958482602086016118a4565b91505092915050565b600082601f8301126119af57600080fd5b81356119bf8482602086016118e2565b91505092915050565b6000813590506119d781612a78565b92915050565b6000602082840312156119ef57600080fd5b60006119fd84828501611920565b91505092915050565b60008060408385031215611a1957600080fd5b6000611a2785828601611920565b9250506020611a3885828601611920565b9150509250929050565b600080600060608486031215611a5757600080fd5b6000611a6586828701611920565b9350506020611a7686828701611920565b9250506040611a87868287016119c8565b9150509250925092565b60008060008060808587031215611aa757600080fd5b6000611ab587828801611920565b9450506020611ac687828801611920565b9350506040611ad7878288016119c8565b925050606085013567ffffffffffffffff811115611af457600080fd5b611b0087828801611974565b91505092959194509250565b60008060408385031215611b1f57600080fd5b6000611b2d85828601611920565b9250506020611b3e85828601611935565b9150509250929050565b600080600060608486031215611b5d57600080fd5b6000611b6b86828701611920565b935050602084013567ffffffffffffffff811115611b8857600080fd5b611b948682870161199e565b925050604084013567ffffffffffffffff811115611bb157600080fd5b611bbd8682870161199e565b9150509250925092565b60008060408385031215611bda57600080fd5b6000611be885828601611920565b9250506020611bf9858286016119c8565b9150509250929050565b600060208284031215611c1557600080fd5b6000611c238482850161194a565b91505092915050565b600060208284031215611c3e57600080fd5b6000611c4c8482850161195f565b91505092915050565b600060208284031215611c6757600080fd5b6000611c75848285016119c8565b91505092915050565b611c878161244d565b82525050565b611c968161245f565b82525050565b6000611ca78261238b565b611cb181856123a1565b9350611cc18185602086016124d0565b611cca816125f3565b840191505092915050565b6000611ce082612396565b611cea81856123b2565b9350611cfa8185602086016124d0565b611d03816125f3565b840191505092915050565b60008154611d1b81612503565b611d2581866123b2565b94506001821660008114611d405760018114611d5257611d85565b60ff1983168652602086019350611d85565b611d5b85612376565b60005b83811015611d7d57815481890152600182019150602081019050611d5e565b808801955050505b50505092915050565b6000611d9b6032836123b2565b9150611da682612604565b604082019050919050565b6000611dbe601c836123b2565b9150611dc982612653565b602082019050919050565b6000611de16024836123b2565b9150611dec8261267c565b604082019050919050565b6000611e046019836123b2565b9150611e0f826126cb565b602082019050919050565b6000611e27602c836123b2565b9150611e32826126f4565b604082019050919050565b6000611e4a6038836123b2565b9150611e5582612743565b604082019050919050565b6000611e6d602a836123b2565b9150611e7882612792565b604082019050919050565b6000611e906029836123b2565b9150611e9b826127e1565b604082019050919050565b6000611eb36020836123b2565b9150611ebe82612830565b602082019050919050565b6000611ed6602c836123b2565b9150611ee182612859565b604082019050919050565b6000611ef96021836123b2565b9150611f04826128a8565b604082019050919050565b6000611f1c6029836123b2565b9150611f27826128f7565b604082019050919050565b6000611f3f602f836123b2565b9150611f4a82612946565b604082019050919050565b6000611f626021836123b2565b9150611f6d82612995565b604082019050919050565b6000611f856031836123b2565b9150611f90826129e4565b604082019050919050565b611fa4816124b7565b82525050565b6000602082019050611fbf6000830184611c7e565b92915050565b6000608082019050611fda6000830187611c7e565b611fe76020830186611c7e565b611ff46040830185611f9b565b81810360608301526120068184611c9c565b905095945050505050565b60006020820190506120266000830184611c8d565b92915050565b600060208201905081810360008301526120468184611cd5565b905092915050565b6000602082019050818103600083015261206781611d8e565b9050919050565b6000602082019050818103600083015261208781611db1565b9050919050565b600060208201905081810360008301526120a781611dd4565b9050919050565b600060208201905081810360008301526120c781611df7565b9050919050565b600060208201905081810360008301526120e781611e1a565b9050919050565b6000602082019050818103600083015261210781611e3d565b9050919050565b6000602082019050818103600083015261212781611e60565b9050919050565b6000602082019050818103600083015261214781611e83565b9050919050565b6000602082019050818103600083015261216781611ea6565b9050919050565b6000602082019050818103600083015261218781611ec9565b9050919050565b600060208201905081810360008301526121a781611eec565b9050919050565b600060208201905081810360008301526121c781611f0f565b9050919050565b600060208201905081810360008301526121e781611f32565b9050919050565b6000602082019050818103600083015261220781611f55565b9050919050565b6000602082019050818103600083015261222781611f78565b9050919050565b60006020820190506122436000830184611f9b565b92915050565b600060808201905061225e6000830187611f9b565b61226b6020830186611c7e565b818103604083015261227d8185611cd5565b905081810360608301526122918184611cd5565b905095945050505050565b60006080820190506122b16000830187611f9b565b6122be6020830186611c7e565b81810360408301526122d08185611d0e565b905081810360608301526122e48184611d0e565b905095945050505050565b60006122f961230a565b90506123058282612535565b919050565b6000604051905090565b600067ffffffffffffffff82111561232f5761232e6125c4565b5b612338826125f3565b9050602081019050919050565b600067ffffffffffffffff8211156123605761235f6125c4565b5b612369826125f3565b9050602081019050919050565b60008190508160005260206000209050919050565b600081519050919050565b600081519050919050565b600082825260208201905092915050565b600082825260208201905092915050565b60006123ce826124b7565b91506123d9836124b7565b9250827fffffffffffffffffffffffffffffffffffffffffffffffffffffffffffffffff0382111561240e5761240d612566565b5b828201905092915050565b6000612424826124b7565b915061242f836124b7565b92508282101561244257612441612566565b5b828203905092915050565b600061245882612497565b9050919050565b60008115159050919050565b60007fffffffff0000000000000000000000000000000000000000000000000000000082169050919050565b600073ffffffffffffffffffffffffffffffffffffffff82169050919050565b6000819050919050565b82818337600083830152505050565b60005b838110156124ee5780820151818401526020810190506124d3565b838111156124fd576000848401525b50505050565b6000600282049050600182168061251b57607f821691505b6020821081141561252f5761252e612595565b5b50919050565b61253e826125f3565b810181811067ffffffffffffffff8211171561255d5761255c6125c4565b5b80604052505050565b7f4e487b7100000000000000000000000000000000000000000000000000000000600052601160045260246000fd5b7f4e487b7100000000000000000000000000000000000000000000000000000000600052602260045260246000fd5b7f4e487b7100000000000000000000000000000000000000000000000000000000600052604160045260246000fd5b6000601f19601f8301169050919050565b7f4552433732313a207472616e7366657220746f206e6f6e20455243373231526560008201527f63656976657220696d706c656d656e7465720000000000000000000000000000602082015250565b7f4552433732313a20746f6b656e20616c7265616479206d696e74656400000000600082015250565b7f4552433732313a207472616e7366657220746f20746865207a65726f2061646460008201527f7265737300000000000000000000000000000000000000000000000000000000602082015250565b7f4552433732313a20617070726f766520746f2063616c6c657200000000000000600082015250565b7f4552433732313a206f70657261746f7220717565727920666f72206e6f6e657860008201527f697374656e7420746f6b656e0000000000000000000000000000000000000000602082015250565b7f4552433732313a20617070726f76652063616c6c6572206973206e6f74206f7760008201527f6e6572206e6f7220617070726f76656420666f7220616c6c0000000000000000602082015250565b7f4552433732313a2062616c616e636520717565727920666f7220746865207a6560008201527f726f206164647265737300000000000000000000000000000000000000000000602082015250565b7f4552433732313a206f776e657220717565727920666f72206e6f6e657869737460008201527f656e7420746f6b656e0000000000000000000000000000000000000000000000602082015250565b7f4552433732313a206d696e7420746f20746865207a65726f2061646472657373600082015250565b7f4552433732313a20617070726f76656420717565727920666f72206e6f6e657860008201527f697374656e7420746f6b656e0000000000000000000000000000000000000000602082015250565b7f596f7520617265206e6f7420746865206f776e6572206f662074686973204e4660008201527f5400000000000000000000000000000000000000000000000000000000000000602082015250565b7f4552433732313a207472616e73666572206f6620746f6b656e2074686174206960008201527f73206e6f74206f776e0000000000000000000000000000000000000000000000602082015250565b7f4552433732314d657461646174613a2055524920717565727920666f72206e6f60008201527f6e6578697374656e7420746f6b656e0000000000000000000000000000000000602082015250565b7f4552433732313a20617070726f76616c20746f2063757272656e74206f776e6560008201527f7200000000000000000000000000000000000000000000000000000000000000602082015250565b7f4552433732313a207472616e736665722063616c6c6572206973206e6f74206f60008201527f776e6572206e6f7220617070726f766564000000000000000000000000000000602082015250565b612a3c8161244d565b8114612a4757600080fd5b50565b612a538161245f565b8114612a5e57600080fd5b50565b612a6a8161246b565b8114612a7557600080fd5b50565b612a81816124b7565b8114612a8c57600080fd5b5056fea26469706673582212208c8ec7bbe0a4f05613dd712a0e5697c1a5774212cce35648011ce471fd6c494864736f6c63430008010033",
  "immutableReferences": {},
  "source": "// SPDX-License-Identifier: MIT\npragma solidity ^0.8.0;\n\nimport \"@openzeppelin/contracts/token/ERC721/ERC721.sol\";\nimport \"@openzeppelin/contracts/utils/Counters.sol\";\n\ncontract NFTCollection is ERC721 {\n    using Counters for Counters.Counter;\n    Counters.Counter private _tokenIds;\n\n    //mapping for token URIs\n    mapping (uint256 => string) private _tokenURIs;\n\n    //mapping for token titles\n    mapping (uint256 => string) private _titles;\n\n    event mintedToken(uint256 tokenID, address userAddress, string tokenURI, string title);\n    event burnedToken(uint256 tokenID, address userAddress, string tokenURI, string title);\n\n    constructor() ERC721(\"NFTCollection\", \"NFTC\") {}\n\n    function mintToken(address userAddress, string memory _title, string memory _tokenURI) public {\n        _tokenIds.increment();\n\n        uint256 newTokenId = _tokenIds.current();\n        _tokenURIs[newTokenId] = _tokenURI;\n        _safeMint(userAddress, newTokenId);\n        _titles[newTokenId] = _title;\n        emit mintedToken(newTokenId, userAddress, _tokenURI, _title);\n    }\n\n    function burnToken(uint256 tokenID) public {\n        address owner = ERC721.ownerOf(tokenID);\n        require(msg.sender == owner, \"You are not the owner of this NFT\");\n        _burn(tokenID);\n        emit burnedToken(tokenID, owner, _tokenURIs[tokenID], _titles[tokenID]);\n    }\n\n    function tokenURI(uint tokenID) public view virtual override returns (string memory){\n        require(_exists(tokenID), \"ERC721Metadata: URI query for nonexistent token\");\n        return _tokenURIs[tokenID];\n    }\n\n\n}\n",
  "sourcePath": "/home/luca/Desktop/NFT-Marketplace/contracts/NFTCollection.sol",
  "compiler": {
    "name": "solc",
    "version": "0.8.1+commit.df193b15.Emscripten.clang"
  },
  "schemaVersion": "3.4.2",
  "updatedAt": "2022-05-03T21:04:06.258Z",
  "networkType": "ethereum",
  "devdoc": {
    "kind": "dev",
    "methods": {
      "approve(address,uint256)": {
        "details": "See {IERC721-approve}."
      },
      "balanceOf(address)": {
        "details": "See {IERC721-balanceOf}."
      },
      "getApproved(uint256)": {
        "details": "See {IERC721-getApproved}."
      },
      "isApprovedForAll(address,address)": {
        "details": "See {IERC721-isApprovedForAll}."
      },
      "name()": {
        "details": "See {IERC721Metadata-name}."
      },
      "ownerOf(uint256)": {
        "details": "See {IERC721-ownerOf}."
      },
      "safeTransferFrom(address,address,uint256)": {
        "details": "See {IERC721-safeTransferFrom}."
      },
      "safeTransferFrom(address,address,uint256,bytes)": {
        "details": "See {IERC721-safeTransferFrom}."
      },
      "setApprovalForAll(address,bool)": {
        "details": "See {IERC721-setApprovalForAll}."
      },
      "supportsInterface(bytes4)": {
        "details": "See {IERC165-supportsInterface}."
      },
      "symbol()": {
        "details": "See {IERC721Metadata-symbol}."
      },
      "transferFrom(address,address,uint256)": {
        "details": "See {IERC721-transferFrom}."
      }
    },
    "version": 1
  },
  "userdoc": {
    "kind": "user",
    "methods": {},
    "version": 1
  }
}