{
  "contractName": "NFTCollection",
  "abi": [
    {
      "inputs": [],
      "stateMutability": "nonpayable",
      "type": "constructor"
    },
    {
      "anonymous": false,
      "inputs": [
        {
          "indexed": true,
          "internalType": "address",
          "name": "owner",
          "type": "address"
        },
        {
          "indexed": true,
          "internalType": "address",
          "name": "approved",
          "type": "address"
        },
        {
          "indexed": true,
          "internalType": "uint256",
          "name": "tokenId",
          "type": "uint256"
        }
      ],
      "name": "Approval",
      "type": "event"
    },
    {
      "anonymous": false,
      "inputs": [
        {
          "indexed": true,
          "internalType": "address",
          "name": "owner",
          "type": "address"
        },
        {
          "indexed": true,
          "internalType": "address",
          "name": "operator",
          "type": "address"
        },
        {
          "indexed": false,
          "internalType": "bool",
          "name": "approved",
          "type": "bool"
        }
      ],
      "name": "ApprovalForAll",
      "type": "event"
    },
    {
      "anonymous": false,
      "inputs": [
        {
          "indexed": true,
          "internalType": "address",
          "name": "from",
          "type": "address"
        },
        {
          "indexed": true,
          "internalType": "address",
          "name": "to",
          "type": "address"
        },
        {
          "indexed": true,
          "internalType": "uint256",
          "name": "tokenId",
          "type": "uint256"
        }
      ],
      "name": "Transfer",
      "type": "event"
    },
    {
      "anonymous": false,
      "inputs": [
        {
          "indexed": false,
          "internalType": "uint256",
          "name": "tokenID",
          "type": "uint256"
        },
        {
          "indexed": false,
          "internalType": "address",
          "name": "userAddress",
          "type": "address"
        },
        {
          "indexed": false,
          "internalType": "string",
          "name": "tokenURI",
          "type": "string"
        }
      ],
      "name": "burnedToken",
      "type": "event"
    },
    {
      "anonymous": false,
      "inputs": [
        {
          "indexed": false,
          "internalType": "uint256",
          "name": "tokenID",
          "type": "uint256"
        },
        {
          "indexed": false,
          "internalType": "address",
          "name": "userAddress",
          "type": "address"
        },
        {
          "indexed": false,
          "internalType": "string",
          "name": "tokenURI",
          "type": "string"
        }
      ],
      "name": "mintedToken",
      "type": "event"
    },
    {
      "inputs": [
        {
          "internalType": "address",
          "name": "to",
          "type": "address"
        },
        {
          "internalType": "uint256",
          "name": "tokenId",
          "type": "uint256"
        }
      ],
      "name": "approve",
      "outputs": [],
      "stateMutability": "nonpayable",
      "type": "function"
    },
    {
      "inputs": [
        {
          "internalType": "address",
          "name": "owner",
          "type": "address"
        }
      ],
      "name": "balanceOf",
      "outputs": [
        {
          "internalType": "uint256",
          "name": "",
          "type": "uint256"
        }
      ],
      "stateMutability": "view",
      "type": "function",
      "constant": true
    },
    {
      "inputs": [
        {
          "internalType": "uint256",
          "name": "tokenId",
          "type": "uint256"
        }
      ],
      "name": "getApproved",
      "outputs": [
        {
          "internalType": "address",
          "name": "",
          "type": "address"
        }
      ],
      "stateMutability": "view",
      "type": "function",
      "constant": true
    },
    {
      "inputs": [
        {
          "internalType": "address",
          "name": "owner",
          "type": "address"
        },
        {
          "internalType": "address",
          "name": "operator",
          "type": "address"
        }
      ],
      "name": "isApprovedForAll",
      "outputs": [
        {
          "internalType": "bool",
          "name": "",
          "type": "bool"
        }
      ],
      "stateMutability": "view",
      "type": "function",
      "constant": true
    },
    {
      "inputs": [],
      "name": "name",
      "outputs": [
        {
          "internalType": "string",
          "name": "",
          "type": "string"
        }
      ],
      "stateMutability": "view",
      "type": "function",
      "constant": true
    },
    {
      "inputs": [
        {
          "internalType": "uint256",
          "name": "tokenId",
          "type": "uint256"
        }
      ],
      "name": "ownerOf",
      "outputs": [
        {
          "internalType": "address",
          "name": "",
          "type": "address"
        }
      ],
      "stateMutability": "view",
      "type": "function",
      "constant": true
    },
    {
      "inputs": [
        {
          "internalType": "address",
          "name": "from",
          "type": "address"
        },
        {
          "internalType": "address",
          "name": "to",
          "type": "address"
        },
        {
          "internalType": "uint256",
          "name": "tokenId",
          "type": "uint256"
        }
      ],
      "name": "safeTransferFrom",
      "outputs": [],
      "stateMutability": "nonpayable",
      "type": "function"
    },
    {
      "inputs": [
        {
          "internalType": "address",
          "name": "from",
          "type": "address"
        },
        {
          "internalType": "address",
          "name": "to",
          "type": "address"
        },
        {
          "internalType": "uint256",
          "name": "tokenId",
          "type": "uint256"
        },
        {
          "internalType": "bytes",
          "name": "_data",
          "type": "bytes"
        }
      ],
      "name": "safeTransferFrom",
      "outputs": [],
      "stateMutability": "nonpayable",
      "type": "function"
    },
    {
      "inputs": [
        {
          "internalType": "address",
          "name": "operator",
          "type": "address"
        },
        {
          "internalType": "bool",
          "name": "approved",
          "type": "bool"
        }
      ],
      "name": "setApprovalForAll",
      "outputs": [],
      "stateMutability": "nonpayable",
      "type": "function"
    },
    {
      "inputs": [
        {
          "internalType": "bytes4",
          "name": "interfaceId",
          "type": "bytes4"
        }
      ],
      "name": "supportsInterface",
      "outputs": [
        {
          "internalType": "bool",
          "name": "",
          "type": "bool"
        }
      ],
      "stateMutability": "view",
      "type": "function",
      "constant": true
    },
    {
      "inputs": [],
      "name": "symbol",
      "outputs": [
        {
          "internalType": "string",
          "name": "",
          "type": "string"
        }
      ],
      "stateMutability": "view",
      "type": "function",
      "constant": true
    },
    {
      "inputs": [
        {
          "internalType": "address",
          "name": "from",
          "type": "address"
        },
        {
          "internalType": "address",
          "name": "to",
          "type": "address"
        },
        {
          "internalType": "uint256",
          "name": "tokenId",
          "type": "uint256"
        }
      ],
      "name": "transferFrom",
      "outputs": [],
      "stateMutability": "nonpayable",
      "type": "function"
    },
    {
      "inputs": [
        {
          "internalType": "address",
          "name": "userAddress",
          "type": "address"
        },
        {
          "internalType": "string",
          "name": "_tokenURI",
          "type": "string"
        }
      ],
      "name": "mintToken",
      "outputs": [],
      "stateMutability": "nonpayable",
      "type": "function"
    },
    {
      "inputs": [
        {
          "internalType": "uint256",
          "name": "tokenID",
          "type": "uint256"
        }
      ],
      "name": "burnToken",
      "outputs": [],
      "stateMutability": "nonpayable",
      "type": "function"
    },
    {
      "inputs": [
        {
          "internalType": "uint256",
          "name": "tokenID",
          "type": "uint256"
        }
      ],
      "name": "tokenURI",
      "outputs": [
        {
          "internalType": "string",
          "name": "",
          "type": "string"
        }
      ],
      "stateMutability": "view",
      "type": "function",
      "constant": true
    }
  ],
  "bytecode": "0x60806040523480156200001157600080fd5b506040518060400160405280600d81526020017f4e4654436f6c6c656374696f6e000000000000000000000000000000000000008152506040518060400160405280600481526020017f4e46544300000000000000000000000000000000000000000000000000000000815250816000908051906020019062000096929190620000b8565b508060019080519060200190620000af929190620000b8565b505050620001cd565b828054620000c69062000168565b90600052602060002090601f016020900481019282620000ea576000855562000136565b82601f106200010557805160ff191683800117855562000136565b8280016001018555821562000136579182015b828111156200013557825182559160200191906001019062000118565b5b50905062000145919062000149565b5090565b5b80821115620001645760008160009055506001016200014a565b5090565b600060028204905060018216806200018157607f821691505b602082108114156200019857620001976200019e565b5b50919050565b7f4e487b7100000000000000000000000000000000000000000000000000000000600052602260045260246000fd5b61296580620001dd6000396000f3fe608060405234801561001057600080fd5b50600436106100f55760003560e01c80636352211e11610097578063a22cb46511610066578063a22cb46514610282578063b88d4fde1461029e578063c87b56dd146102ba578063e985e9c5146102ea576100f5565b80636352211e146101e857806370a08231146102185780637b47ec1a1461024857806395d89b4114610264576100f5565b8063095ea7b3116100d3578063095ea7b31461017857806323b872dd146101945780633d02d0c9146101b057806342842e0e146101cc576100f5565b806301ffc9a7146100fa57806306fdde031461012a578063081812fc14610148575b600080fd5b610114600480360381019061010f9190611b5f565b61031a565b6040516101219190611f4a565b60405180910390f35b6101326103fc565b60405161013f9190611f65565b60405180910390f35b610162600480360381019061015d9190611bb1565b61048e565b60405161016f9190611ee3565b60405180910390f35b610192600480360381019061018d9190611b23565b610513565b005b6101ae60048036038101906101a991906119c9565b61062b565b005b6101ca60048036038101906101c59190611acf565b61068b565b005b6101e660048036038101906101e191906119c9565b6106f7565b005b61020260048036038101906101fd9190611bb1565b610717565b60405161020f9190611ee3565b60405180910390f35b610232600480360381019061022d9190611964565b6107c9565b60405161023f9190612147565b60405180910390f35b610262600480360381019061025d9190611bb1565b610881565b005b61026c610956565b6040516102799190611f65565b60405180910390f35b61029c60048036038101906102979190611a93565b6109e8565b005b6102b860048036038101906102b39190611a18565b610b69565b005b6102d460048036038101906102cf9190611bb1565b610bcb565b6040516102e19190611f65565b60405180910390f35b61030460048036038101906102ff919061198d565b610c70565b6040516103119190611f4a565b60405180910390f35b60007f80ac58cd000000000000000000000000000000000000000000000000000000007bffffffffffffffffffffffffffffffffffffffffffffffffffffffff1916827bffffffffffffffffffffffffffffffffffffffffffffffffffffffff191614806103e557507f5b5e139f000000000000000000000000000000000000000000000000000000007bffffffffffffffffffffffffffffffffffffffffffffffffffffffff1916827bffffffffffffffffffffffffffffffffffffffffffffffffffffffff1916145b806103f557506103f482610d04565b5b9050919050565b60606000805461040b906123f2565b80601f0160208091040260200160405190810160405280929190818152602001828054610437906123f2565b80156104845780601f1061045957610100808354040283529160200191610484565b820191906000526020600020905b81548152906001019060200180831161046757829003601f168201915b5050505050905090565b600061049982610d6e565b6104d8576040517f08c379a00000000000000000000000000000000000000000000000000000000081526004016104cf906120a7565b60405180910390fd5b6004600083815260200190815260200160002060009054906101000a900473ffffffffffffffffffffffffffffffffffffffff169050919050565b600061051e82610717565b90508073ffffffffffffffffffffffffffffffffffffffff168373ffffffffffffffffffffffffffffffffffffffff16141561058f576040517f08c379a000000000000000000000000000000000000000000000000000000000815260040161058690612107565b60405180910390fd5b8073ffffffffffffffffffffffffffffffffffffffff166105ae610dda565b73ffffffffffffffffffffffffffffffffffffffff1614806105dd57506105dc816105d7610dda565b610c70565b5b61061c576040517f08c379a000000000000000000000000000000000000000000000000000000000815260040161061390612027565b60405180910390fd5b6106268383610de2565b505050565b61063c610636610dda565b82610e9b565b61067b576040517f08c379a000000000000000000000000000000000000000000000000000000000815260040161067290612127565b60405180910390fd5b610686838383610f79565b505050565b61069560066111d5565b60006106a160066111eb565b90506106ad83826111f9565b6106b78183611217565b7fe6c04ba99ee309e1eb6ea1dac6557c2d4f4efac8775fb8d9c7c8439e4db340898184846040516106ea93929190612162565b60405180910390a1505050565b61071283838360405180602001604052806000815250610b69565b505050565b6000806002600084815260200190815260200160002060009054906101000a900473ffffffffffffffffffffffffffffffffffffffff169050600073ffffffffffffffffffffffffffffffffffffffff168173ffffffffffffffffffffffffffffffffffffffff1614156107c0576040517f08c379a00000000000000000000000000000000000000000000000000000000081526004016107b790612067565b60405180910390fd5b80915050919050565b60008073ffffffffffffffffffffffffffffffffffffffff168273ffffffffffffffffffffffffffffffffffffffff16141561083a576040517f08c379a000000000000000000000000000000000000000000000000000000000815260040161083190612047565b60405180910390fd5b600360008373ffffffffffffffffffffffffffffffffffffffff1673ffffffffffffffffffffffffffffffffffffffff168152602001908152602001600020549050919050565b600061088c82610717565b90508073ffffffffffffffffffffffffffffffffffffffff163373ffffffffffffffffffffffffffffffffffffffff16146108fc576040517f08c379a00000000000000000000000000000000000000000000000000000000081526004016108f3906120c7565b60405180910390fd5b61090582611243565b7fb3782b2eb9ff22e68976bf52539aac45edcc95edbdcf595c67311e4ed39a87d082826007600086815260200190815260200160002060405161094a939291906121a0565b60405180910390a15050565b606060018054610965906123f2565b80601f0160208091040260200160405190810160405280929190818152602001828054610991906123f2565b80156109de5780601f106109b3576101008083540402835291602001916109de565b820191906000526020600020905b8154815290600101906020018083116109c157829003601f168201915b5050505050905090565b6109f0610dda565b73ffffffffffffffffffffffffffffffffffffffff168273ffffffffffffffffffffffffffffffffffffffff161415610a5e576040517f08c379a0000000000000000000000000000000000000000000000000000000008152600401610a5590611fe7565b60405180910390fd5b8060056000610a6b610dda565b73ffffffffffffffffffffffffffffffffffffffff1673ffffffffffffffffffffffffffffffffffffffff16815260200190815260200160002060008473ffffffffffffffffffffffffffffffffffffffff1673ffffffffffffffffffffffffffffffffffffffff16815260200190815260200160002060006101000a81548160ff0219169083151502179055508173ffffffffffffffffffffffffffffffffffffffff16610b18610dda565b73ffffffffffffffffffffffffffffffffffffffff167f17307eab39ab6107e8899845ad3d59bd9653f200f220920489ca2b5937696c3183604051610b5d9190611f4a565b60405180910390a35050565b610b7a610b74610dda565b83610e9b565b610bb9576040517f08c379a0000000000000000000000000000000000000000000000000000000008152600401610bb090612127565b60405180910390fd5b610bc584848484611354565b50505050565b6060600760008381526020019081526020016000208054610beb906123f2565b80601f0160208091040260200160405190810160405280929190818152602001828054610c17906123f2565b8015610c645780601f10610c3957610100808354040283529160200191610c64565b820191906000526020600020905b815481529060010190602001808311610c4757829003601f168201915b50505050509050919050565b6000600560008473ffffffffffffffffffffffffffffffffffffffff1673ffffffffffffffffffffffffffffffffffffffff16815260200190815260200160002060008373ffffffffffffffffffffffffffffffffffffffff1673ffffffffffffffffffffffffffffffffffffffff16815260200190815260200160002060009054906101000a900460ff16905092915050565b60007f01ffc9a7000000000000000000000000000000000000000000000000000000007bffffffffffffffffffffffffffffffffffffffffffffffffffffffff1916827bffffffffffffffffffffffffffffffffffffffffffffffffffffffff1916149050919050565b60008073ffffffffffffffffffffffffffffffffffffffff166002600084815260200190815260200160002060009054906101000a900473ffffffffffffffffffffffffffffffffffffffff1673ffffffffffffffffffffffffffffffffffffffff1614159050919050565b600033905090565b816004600083815260200190815260200160002060006101000a81548173ffffffffffffffffffffffffffffffffffffffff021916908373ffffffffffffffffffffffffffffffffffffffff160217905550808273ffffffffffffffffffffffffffffffffffffffff16610e5583610717565b73ffffffffffffffffffffffffffffffffffffffff167f8c5be1e5ebec7d5bd14f71427d1e84f3dd0314c0f7b2291e5b200ac8c7c3b92560405160405180910390a45050565b6000610ea682610d6e565b610ee5576040517f08c379a0000000000000000000000000000000000000000000000000000000008152600401610edc90612007565b60405180910390fd5b6000610ef083610717565b90508073ffffffffffffffffffffffffffffffffffffffff168473ffffffffffffffffffffffffffffffffffffffff161480610f5f57508373ffffffffffffffffffffffffffffffffffffffff16610f478461048e565b73ffffffffffffffffffffffffffffffffffffffff16145b80610f705750610f6f8185610c70565b5b91505092915050565b8273ffffffffffffffffffffffffffffffffffffffff16610f9982610717565b73ffffffffffffffffffffffffffffffffffffffff1614610fef576040517f08c379a0000000000000000000000000000000000000000000000000000000008152600401610fe6906120e7565b60405180910390fd5b600073ffffffffffffffffffffffffffffffffffffffff168273ffffffffffffffffffffffffffffffffffffffff16141561105f576040517f08c379a000000000000000000000000000000000000000000000000000000000815260040161105690611fc7565b60405180910390fd5b61106a8383836113b0565b611075600082610de2565b6001600360008573ffffffffffffffffffffffffffffffffffffffff1673ffffffffffffffffffffffffffffffffffffffff16815260200190815260200160002060008282546110c59190612308565b925050819055506001600360008473ffffffffffffffffffffffffffffffffffffffff1673ffffffffffffffffffffffffffffffffffffffff168152602001908152602001600020600082825461111c91906122b2565b92505081905550816002600083815260200190815260200160002060006101000a81548173ffffffffffffffffffffffffffffffffffffffff021916908373ffffffffffffffffffffffffffffffffffffffff160217905550808273ffffffffffffffffffffffffffffffffffffffff168473ffffffffffffffffffffffffffffffffffffffff167fddf252ad1be2c89b69c2b068fc378daa952ba7f163c4a11628f55a4df523b3ef60405160405180910390a4505050565b6001816000016000828254019250508190555050565b600081600001549050919050565b6112138282604051806020016040528060008152506113b5565b5050565b8060076000848152602001908152602001600020908051906020019061123e929190611788565b505050565b600061124e82610717565b905061125c816000846113b0565b611267600083610de2565b6001600360008373ffffffffffffffffffffffffffffffffffffffff1673ffffffffffffffffffffffffffffffffffffffff16815260200190815260200160002060008282546112b79190612308565b925050819055506002600083815260200190815260200160002060006101000a81549073ffffffffffffffffffffffffffffffffffffffff021916905581600073ffffffffffffffffffffffffffffffffffffffff168273ffffffffffffffffffffffffffffffffffffffff167fddf252ad1be2c89b69c2b068fc378daa952ba7f163c4a11628f55a4df523b3ef60405160405180910390a45050565b61135f848484610f79565b61136b84848484611410565b6113aa576040517f08c379a00000000000000000000000000000000000000000000000000000000081526004016113a190611f87565b60405180910390fd5b50505050565b505050565b6113bf83836115a7565b6113cc6000848484611410565b61140b576040517f08c379a000000000000000000000000000000000000000000000000000000000815260040161140290611f87565b60405180910390fd5b505050565b60006114318473ffffffffffffffffffffffffffffffffffffffff16611775565b1561159a578373ffffffffffffffffffffffffffffffffffffffff1663150b7a0261145a610dda565b8786866040518563ffffffff1660e01b815260040161147c9493929190611efe565b602060405180830381600087803b15801561149657600080fd5b505af19250505080156114c757506040513d601f19601f820116820180604052508101906114c49190611b88565b60015b61154a573d80600081146114f7576040519150601f19603f3d011682016040523d82523d6000602084013e6114fc565b606091505b50600081511415611542576040517f08c379a000000000000000000000000000000000000000000000000000000000815260040161153990611f87565b60405180910390fd5b805181602001fd5b63150b7a0260e01b7bffffffffffffffffffffffffffffffffffffffffffffffffffffffff1916817bffffffffffffffffffffffffffffffffffffffffffffffffffffffff19161491505061159f565b600190505b949350505050565b600073ffffffffffffffffffffffffffffffffffffffff168273ffffffffffffffffffffffffffffffffffffffff161415611617576040517f08c379a000000000000000000000000000000000000000000000000000000000815260040161160e90612087565b60405180910390fd5b61162081610d6e565b15611660576040517f08c379a000000000000000000000000000000000000000000000000000000000815260040161165790611fa7565b60405180910390fd5b61166c600083836113b0565b6001600360008473ffffffffffffffffffffffffffffffffffffffff1673ffffffffffffffffffffffffffffffffffffffff16815260200190815260200160002060008282546116bc91906122b2565b92505081905550816002600083815260200190815260200160002060006101000a81548173ffffffffffffffffffffffffffffffffffffffff021916908373ffffffffffffffffffffffffffffffffffffffff160217905550808273ffffffffffffffffffffffffffffffffffffffff16600073ffffffffffffffffffffffffffffffffffffffff167fddf252ad1be2c89b69c2b068fc378daa952ba7f163c4a11628f55a4df523b3ef60405160405180910390a45050565b600080823b905060008111915050919050565b828054611794906123f2565b90600052602060002090601f0160209004810192826117b657600085556117fd565b82601f106117cf57805160ff19168380011785556117fd565b828001600101855582156117fd579182015b828111156117fc5782518255916020019190600101906117e1565b5b50905061180a919061180e565b5090565b5b8082111561182757600081600090555060010161180f565b5090565b600061183e61183984612203565b6121de565b90508281526020810184848401111561185657600080fd5b6118618482856123b0565b509392505050565b600061187c61187784612234565b6121de565b90508281526020810184848401111561189457600080fd5b61189f8482856123b0565b509392505050565b6000813590506118b6816128d3565b92915050565b6000813590506118cb816128ea565b92915050565b6000813590506118e081612901565b92915050565b6000815190506118f581612901565b92915050565b600082601f83011261190c57600080fd5b813561191c84826020860161182b565b91505092915050565b600082601f83011261193657600080fd5b8135611946848260208601611869565b91505092915050565b60008135905061195e81612918565b92915050565b60006020828403121561197657600080fd5b6000611984848285016118a7565b91505092915050565b600080604083850312156119a057600080fd5b60006119ae858286016118a7565b92505060206119bf858286016118a7565b9150509250929050565b6000806000606084860312156119de57600080fd5b60006119ec868287016118a7565b93505060206119fd868287016118a7565b9250506040611a0e8682870161194f565b9150509250925092565b60008060008060808587031215611a2e57600080fd5b6000611a3c878288016118a7565b9450506020611a4d878288016118a7565b9350506040611a5e8782880161194f565b925050606085013567ffffffffffffffff811115611a7b57600080fd5b611a87878288016118fb565b91505092959194509250565b60008060408385031215611aa657600080fd5b6000611ab4858286016118a7565b9250506020611ac5858286016118bc565b9150509250929050565b60008060408385031215611ae257600080fd5b6000611af0858286016118a7565b925050602083013567ffffffffffffffff811115611b0d57600080fd5b611b1985828601611925565b9150509250929050565b60008060408385031215611b3657600080fd5b6000611b44858286016118a7565b9250506020611b558582860161194f565b9150509250929050565b600060208284031215611b7157600080fd5b6000611b7f848285016118d1565b91505092915050565b600060208284031215611b9a57600080fd5b6000611ba8848285016118e6565b91505092915050565b600060208284031215611bc357600080fd5b6000611bd18482850161194f565b91505092915050565b611be38161233c565b82525050565b611bf28161234e565b82525050565b6000611c038261227a565b611c0d8185612290565b9350611c1d8185602086016123bf565b611c26816124e2565b840191505092915050565b6000611c3c82612285565b611c4681856122a1565b9350611c568185602086016123bf565b611c5f816124e2565b840191505092915050565b60008154611c77816123f2565b611c8181866122a1565b94506001821660008114611c9c5760018114611cae57611ce1565b60ff1983168652602086019350611ce1565b611cb785612265565b60005b83811015611cd957815481890152600182019150602081019050611cba565b808801955050505b50505092915050565b6000611cf76032836122a1565b9150611d02826124f3565b604082019050919050565b6000611d1a601c836122a1565b9150611d2582612542565b602082019050919050565b6000611d3d6024836122a1565b9150611d488261256b565b604082019050919050565b6000611d606019836122a1565b9150611d6b826125ba565b602082019050919050565b6000611d83602c836122a1565b9150611d8e826125e3565b604082019050919050565b6000611da66038836122a1565b9150611db182612632565b604082019050919050565b6000611dc9602a836122a1565b9150611dd482612681565b604082019050919050565b6000611dec6029836122a1565b9150611df7826126d0565b604082019050919050565b6000611e0f6020836122a1565b9150611e1a8261271f565b602082019050919050565b6000611e32602c836122a1565b9150611e3d82612748565b604082019050919050565b6000611e556021836122a1565b9150611e6082612797565b604082019050919050565b6000611e786029836122a1565b9150611e83826127e6565b604082019050919050565b6000611e9b6021836122a1565b9150611ea682612835565b604082019050919050565b6000611ebe6031836122a1565b9150611ec982612884565b604082019050919050565b611edd816123a6565b82525050565b6000602082019050611ef86000830184611bda565b92915050565b6000608082019050611f136000830187611bda565b611f206020830186611bda565b611f2d6040830185611ed4565b8181036060830152611f3f8184611bf8565b905095945050505050565b6000602082019050611f5f6000830184611be9565b92915050565b60006020820190508181036000830152611f7f8184611c31565b905092915050565b60006020820190508181036000830152611fa081611cea565b9050919050565b60006020820190508181036000830152611fc081611d0d565b9050919050565b60006020820190508181036000830152611fe081611d30565b9050919050565b6000602082019050818103600083015261200081611d53565b9050919050565b6000602082019050818103600083015261202081611d76565b9050919050565b6000602082019050818103600083015261204081611d99565b9050919050565b6000602082019050818103600083015261206081611dbc565b9050919050565b6000602082019050818103600083015261208081611ddf565b9050919050565b600060208201905081810360008301526120a081611e02565b9050919050565b600060208201905081810360008301526120c081611e25565b9050919050565b600060208201905081810360008301526120e081611e48565b9050919050565b6000602082019050818103600083015261210081611e6b565b9050919050565b6000602082019050818103600083015261212081611e8e565b9050919050565b6000602082019050818103600083015261214081611eb1565b9050919050565b600060208201905061215c6000830184611ed4565b92915050565b60006060820190506121776000830186611ed4565b6121846020830185611bda565b81810360408301526121968184611c31565b9050949350505050565b60006060820190506121b56000830186611ed4565b6121c26020830185611bda565b81810360408301526121d48184611c6a565b9050949350505050565b60006121e86121f9565b90506121f48282612424565b919050565b6000604051905090565b600067ffffffffffffffff82111561221e5761221d6124b3565b5b612227826124e2565b9050602081019050919050565b600067ffffffffffffffff82111561224f5761224e6124b3565b5b612258826124e2565b9050602081019050919050565b60008190508160005260206000209050919050565b600081519050919050565b600081519050919050565b600082825260208201905092915050565b600082825260208201905092915050565b60006122bd826123a6565b91506122c8836123a6565b9250827fffffffffffffffffffffffffffffffffffffffffffffffffffffffffffffffff038211156122fd576122fc612455565b5b828201905092915050565b6000612313826123a6565b915061231e836123a6565b92508282101561233157612330612455565b5b828203905092915050565b600061234782612386565b9050919050565b60008115159050919050565b60007fffffffff0000000000000000000000000000000000000000000000000000000082169050919050565b600073ffffffffffffffffffffffffffffffffffffffff82169050919050565b6000819050919050565b82818337600083830152505050565b60005b838110156123dd5780820151818401526020810190506123c2565b838111156123ec576000848401525b50505050565b6000600282049050600182168061240a57607f821691505b6020821081141561241e5761241d612484565b5b50919050565b61242d826124e2565b810181811067ffffffffffffffff8211171561244c5761244b6124b3565b5b80604052505050565b7f4e487b7100000000000000000000000000000000000000000000000000000000600052601160045260246000fd5b7f4e487b7100000000000000000000000000000000000000000000000000000000600052602260045260246000fd5b7f4e487b7100000000000000000000000000000000000000000000000000000000600052604160045260246000fd5b6000601f19601f8301169050919050565b7f4552433732313a207472616e7366657220746f206e6f6e20455243373231526560008201527f63656976657220696d706c656d656e7465720000000000000000000000000000602082015250565b7f4552433732313a20746f6b656e20616c7265616479206d696e74656400000000600082015250565b7f4552433732313a207472616e7366657220746f20746865207a65726f2061646460008201527f7265737300000000000000000000000000000000000000000000000000000000602082015250565b7f4552433732313a20617070726f766520746f2063616c6c657200000000000000600082015250565b7f4552433732313a206f70657261746f7220717565727920666f72206e6f6e657860008201527f697374656e7420746f6b656e0000000000000000000000000000000000000000602082015250565b7f4552433732313a20617070726f76652063616c6c6572206973206e6f74206f7760008201527f6e6572206e6f7220617070726f76656420666f7220616c6c0000000000000000602082015250565b7f4552433732313a2062616c616e636520717565727920666f7220746865207a6560008201527f726f206164647265737300000000000000000000000000000000000000000000602082015250565b7f4552433732313a206f776e657220717565727920666f72206e6f6e657869737460008201527f656e7420746f6b656e0000000000000000000000000000000000000000000000602082015250565b7f4552433732313a206d696e7420746f20746865207a65726f2061646472657373600082015250565b7f4552433732313a20617070726f76656420717565727920666f72206e6f6e657860008201527f697374656e7420746f6b656e0000000000000000000000000000000000000000602082015250565b7f596f7520617265206e6f7420746865206f776e6572206f662074686973204e4660008201527f5400000000000000000000000000000000000000000000000000000000000000602082015250565b7f4552433732313a207472616e73666572206f6620746f6b656e2074686174206960008201527f73206e6f74206f776e0000000000000000000000000000000000000000000000602082015250565b7f4552433732313a20617070726f76616c20746f2063757272656e74206f776e6560008201527f7200000000000000000000000000000000000000000000000000000000000000602082015250565b7f4552433732313a207472616e736665722063616c6c6572206973206e6f74206f60008201527f776e6572206e6f7220617070726f766564000000000000000000000000000000602082015250565b6128dc8161233c565b81146128e757600080fd5b50565b6128f38161234e565b81146128fe57600080fd5b50565b61290a8161235a565b811461291557600080fd5b50565b612921816123a6565b811461292c57600080fd5b5056fea2646970667358221220334c48a0fbae2b003b56affa4ff963341335938051db0531d6e0d5e4163830f064736f6c63430008010033",
  "immutableReferences": {},
  "source": "// SPDX-License-Identifier: MIT\npragma solidity ^0.8.0;\n\nimport \"@openzeppelin/contracts/token/ERC721/ERC721.sol\";\nimport \"@openzeppelin/contracts/utils/Counters.sol\";\n\ncontract NFTCollection is ERC721 {\n    using Counters for Counters.Counter;\n    Counters.Counter private _tokenIds;\n\n    //mapping for token URIs\n    mapping (uint256 => string) private _tokenURIs;\n\n    event mintedToken(uint256 tokenID, address userAddress, string tokenURI);\n    event burnedToken(uint256 tokenID, address userAddress, string tokenURI);\n\n    constructor() ERC721(\"NFTCollection\", \"NFTC\") {}\n\n    function _setTokenURI(uint256 tokenID, string memory _tokenURI) internal virtual {\n        _tokenURIs[tokenID] = _tokenURI;\n    }\n\n    function mintToken(address userAddress, string memory _tokenURI) public {\n        _tokenIds.increment();\n\n        uint256 newTokenId = _tokenIds.current();\n        _safeMint(userAddress, newTokenId);\n        _setTokenURI(newTokenId, _tokenURI);\n\n        emit mintedToken(newTokenId, userAddress, _tokenURI);\n    }\n\n    function burnToken(uint256 tokenID) public {\n        address owner = ERC721.ownerOf(tokenID);\n        require(msg.sender == owner, \"You are not the owner of this NFT\");\n        _burn(tokenID);\n        emit burnedToken(tokenID, owner, _tokenURIs[tokenID]);\n    }\n\n    function tokenURI(uint256 tokenID) public view virtual override returns (string memory){\n        return _tokenURIs[tokenID];\n    }\n\n\n}\n",
  "sourcePath": "/home/luca/Desktop/NFT-Marketplace/contracts/NFTCollection.sol",
  "compiler": {
    "name": "solc",
    "version": "0.8.1+commit.df193b15.Emscripten.clang"
  },
  "schemaVersion": "3.4.2",
  "updatedAt": "2021-08-31T16:26:26.039Z",
  "networkType": "ethereum",
  "devdoc": {
    "kind": "dev",
    "methods": {
      "approve(address,uint256)": {
        "details": "See {IERC721-approve}."
      },
      "balanceOf(address)": {
        "details": "See {IERC721-balanceOf}."
      },
      "getApproved(uint256)": {
        "details": "See {IERC721-getApproved}."
      },
      "isApprovedForAll(address,address)": {
        "details": "See {IERC721-isApprovedForAll}."
      },
      "name()": {
        "details": "See {IERC721Metadata-name}."
      },
      "ownerOf(uint256)": {
        "details": "See {IERC721-ownerOf}."
      },
      "safeTransferFrom(address,address,uint256)": {
        "details": "See {IERC721-safeTransferFrom}."
      },
      "safeTransferFrom(address,address,uint256,bytes)": {
        "details": "See {IERC721-safeTransferFrom}."
      },
      "setApprovalForAll(address,bool)": {
        "details": "See {IERC721-setApprovalForAll}."
      },
      "supportsInterface(bytes4)": {
        "details": "See {IERC165-supportsInterface}."
      },
      "symbol()": {
        "details": "See {IERC721Metadata-symbol}."
      },
      "transferFrom(address,address,uint256)": {
        "details": "See {IERC721-transferFrom}."
      }
    },
    "version": 1
  },
  "userdoc": {
    "kind": "user",
    "methods": {},
    "version": 1
  }
}