{
  "contractName": "NFTCollection",
  "abi": [
    {
      "inputs": [],
      "stateMutability": "nonpayable",
      "type": "constructor"
    },
    {
      "anonymous": false,
      "inputs": [
        {
          "indexed": true,
          "internalType": "address",
          "name": "owner",
          "type": "address"
        },
        {
          "indexed": true,
          "internalType": "address",
          "name": "approved",
          "type": "address"
        },
        {
          "indexed": true,
          "internalType": "uint256",
          "name": "tokenId",
          "type": "uint256"
        }
      ],
      "name": "Approval",
      "type": "event"
    },
    {
      "anonymous": false,
      "inputs": [
        {
          "indexed": true,
          "internalType": "address",
          "name": "owner",
          "type": "address"
        },
        {
          "indexed": true,
          "internalType": "address",
          "name": "operator",
          "type": "address"
        },
        {
          "indexed": false,
          "internalType": "bool",
          "name": "approved",
          "type": "bool"
        }
      ],
      "name": "ApprovalForAll",
      "type": "event"
    },
    {
      "anonymous": false,
      "inputs": [
        {
          "indexed": true,
          "internalType": "address",
          "name": "from",
          "type": "address"
        },
        {
          "indexed": true,
          "internalType": "address",
          "name": "to",
          "type": "address"
        },
        {
          "indexed": true,
          "internalType": "uint256",
          "name": "tokenId",
          "type": "uint256"
        }
      ],
      "name": "Transfer",
      "type": "event"
    },
    {
      "anonymous": false,
      "inputs": [
        {
          "indexed": false,
          "internalType": "uint256",
          "name": "tokenID",
          "type": "uint256"
        },
        {
          "indexed": false,
          "internalType": "address",
          "name": "userAddress",
          "type": "address"
        },
        {
          "indexed": false,
          "internalType": "bytes32",
          "name": "tokenURI",
          "type": "bytes32"
        },
        {
          "indexed": false,
          "internalType": "string",
          "name": "title",
          "type": "string"
        }
      ],
      "name": "burnedToken",
      "type": "event"
    },
    {
      "anonymous": false,
      "inputs": [
        {
          "indexed": false,
          "internalType": "uint256",
          "name": "tokenID",
          "type": "uint256"
        },
        {
          "indexed": false,
          "internalType": "address",
          "name": "userAddress",
          "type": "address"
        },
        {
          "indexed": false,
          "internalType": "bytes32",
          "name": "tokenURI",
          "type": "bytes32"
        },
        {
          "indexed": false,
          "internalType": "string",
          "name": "title",
          "type": "string"
        }
      ],
      "name": "mintedToken",
      "type": "event"
    },
    {
      "inputs": [
        {
          "internalType": "address",
          "name": "to",
          "type": "address"
        },
        {
          "internalType": "uint256",
          "name": "tokenId",
          "type": "uint256"
        }
      ],
      "name": "approve",
      "outputs": [],
      "stateMutability": "nonpayable",
      "type": "function"
    },
    {
      "inputs": [
        {
          "internalType": "address",
          "name": "owner",
          "type": "address"
        }
      ],
      "name": "balanceOf",
      "outputs": [
        {
          "internalType": "uint256",
          "name": "",
          "type": "uint256"
        }
      ],
      "stateMutability": "view",
      "type": "function",
      "constant": true
    },
    {
      "inputs": [
        {
          "internalType": "uint256",
          "name": "tokenId",
          "type": "uint256"
        }
      ],
      "name": "getApproved",
      "outputs": [
        {
          "internalType": "address",
          "name": "",
          "type": "address"
        }
      ],
      "stateMutability": "view",
      "type": "function",
      "constant": true
    },
    {
      "inputs": [
        {
          "internalType": "address",
          "name": "owner",
          "type": "address"
        },
        {
          "internalType": "address",
          "name": "operator",
          "type": "address"
        }
      ],
      "name": "isApprovedForAll",
      "outputs": [
        {
          "internalType": "bool",
          "name": "",
          "type": "bool"
        }
      ],
      "stateMutability": "view",
      "type": "function",
      "constant": true
    },
    {
      "inputs": [],
      "name": "name",
      "outputs": [
        {
          "internalType": "string",
          "name": "",
          "type": "string"
        }
      ],
      "stateMutability": "view",
      "type": "function",
      "constant": true
    },
    {
      "inputs": [
        {
          "internalType": "uint256",
          "name": "tokenId",
          "type": "uint256"
        }
      ],
      "name": "ownerOf",
      "outputs": [
        {
          "internalType": "address",
          "name": "",
          "type": "address"
        }
      ],
      "stateMutability": "view",
      "type": "function",
      "constant": true
    },
    {
      "inputs": [
        {
          "internalType": "address",
          "name": "from",
          "type": "address"
        },
        {
          "internalType": "address",
          "name": "to",
          "type": "address"
        },
        {
          "internalType": "uint256",
          "name": "tokenId",
          "type": "uint256"
        }
      ],
      "name": "safeTransferFrom",
      "outputs": [],
      "stateMutability": "nonpayable",
      "type": "function"
    },
    {
      "inputs": [
        {
          "internalType": "address",
          "name": "from",
          "type": "address"
        },
        {
          "internalType": "address",
          "name": "to",
          "type": "address"
        },
        {
          "internalType": "uint256",
          "name": "tokenId",
          "type": "uint256"
        },
        {
          "internalType": "bytes",
          "name": "_data",
          "type": "bytes"
        }
      ],
      "name": "safeTransferFrom",
      "outputs": [],
      "stateMutability": "nonpayable",
      "type": "function"
    },
    {
      "inputs": [
        {
          "internalType": "address",
          "name": "operator",
          "type": "address"
        },
        {
          "internalType": "bool",
          "name": "approved",
          "type": "bool"
        }
      ],
      "name": "setApprovalForAll",
      "outputs": [],
      "stateMutability": "nonpayable",
      "type": "function"
    },
    {
      "inputs": [
        {
          "internalType": "bytes4",
          "name": "interfaceId",
          "type": "bytes4"
        }
      ],
      "name": "supportsInterface",
      "outputs": [
        {
          "internalType": "bool",
          "name": "",
          "type": "bool"
        }
      ],
      "stateMutability": "view",
      "type": "function",
      "constant": true
    },
    {
      "inputs": [],
      "name": "symbol",
      "outputs": [
        {
          "internalType": "string",
          "name": "",
          "type": "string"
        }
      ],
      "stateMutability": "view",
      "type": "function",
      "constant": true
    },
    {
      "inputs": [
        {
          "internalType": "uint256",
          "name": "tokenId",
          "type": "uint256"
        }
      ],
      "name": "tokenURI",
      "outputs": [
        {
          "internalType": "string",
          "name": "",
          "type": "string"
        }
      ],
      "stateMutability": "view",
      "type": "function",
      "constant": true
    },
    {
      "inputs": [
        {
          "internalType": "address",
          "name": "from",
          "type": "address"
        },
        {
          "internalType": "address",
          "name": "to",
          "type": "address"
        },
        {
          "internalType": "uint256",
          "name": "tokenId",
          "type": "uint256"
        }
      ],
      "name": "transferFrom",
      "outputs": [],
      "stateMutability": "nonpayable",
      "type": "function"
    },
    {
      "inputs": [
        {
          "internalType": "address",
          "name": "userAddress",
          "type": "address"
        },
        {
          "internalType": "string",
          "name": "_tokenURI",
          "type": "string"
        },
        {
          "internalType": "string",
          "name": "_title",
          "type": "string"
        }
      ],
      "name": "mintToken",
      "outputs": [],
      "stateMutability": "nonpayable",
      "type": "function"
    },
    {
      "inputs": [
        {
          "internalType": "uint256",
          "name": "tokenID",
          "type": "uint256"
        }
      ],
      "name": "burnToken",
      "outputs": [],
      "stateMutability": "nonpayable",
      "type": "function"
    },
    {
      "inputs": [
        {
          "internalType": "uint256",
          "name": "tokenID",
          "type": "uint256"
        }
      ],
      "name": "getTokenURI",
      "outputs": [
        {
          "internalType": "bytes32",
          "name": "",
          "type": "bytes32"
        }
      ],
      "stateMutability": "view",
      "type": "function",
      "constant": true
    }
  ],
  "bytecode": "0x60806040523480156200001157600080fd5b506040518060400160405280600d81526020017f4e4654436f6c6c656374696f6e000000000000000000000000000000000000008152506040518060400160405280600481526020017f4e46544300000000000000000000000000000000000000000000000000000000815250816000908051906020019062000096929190620000b8565b508060019080519060200190620000af929190620000b8565b505050620001cd565b828054620000c69062000168565b90600052602060002090601f016020900481019282620000ea576000855562000136565b82601f106200010557805160ff191683800117855562000136565b8280016001018555821562000136579182015b828111156200013557825182559160200191906001019062000118565b5b50905062000145919062000149565b5090565b5b80821115620001645760008160009055506001016200014a565b5090565b600060028204905060018216806200018157607f821691505b602082108114156200019857620001976200019e565b5b50919050565b7f4e487b7100000000000000000000000000000000000000000000000000000000600052602260045260246000fd5b612e4880620001dd6000396000f3fe608060405234801561001057600080fd5b50600436106101005760003560e01c80636352211e11610097578063a22cb46511610066578063a22cb465146102bd578063b88d4fde146102d9578063c87b56dd146102f5578063e985e9c51461032557610100565b80636352211e1461022357806370a08231146102535780637b47ec1a1461028357806395d89b411461029f57610100565b806323b872dd116100d357806323b872dd1461019f5780632e689c3f146101bb5780633bb3a24d146101d757806342842e0e1461020757610100565b806301ffc9a71461010557806306fdde0314610135578063081812fc14610153578063095ea7b314610183575b600080fd5b61011f600480360381019061011a9190611e0f565b610355565b60405161012c9190612298565b60405180910390f35b61013d610437565b60405161014a91906122ce565b60405180910390f35b61016d60048036038101906101689190611e61565b6104c9565b60405161017a9190612231565b60405180910390f35b61019d60048036038101906101989190611dd3565b61054e565b005b6101b960048036038101906101b49190611c4e565b610666565b005b6101d560048036038101906101d09190611d54565b6106c6565b005b6101f160048036038101906101ec9190611e61565b610762565b6040516101fe91906122b3565b60405180910390f35b610221600480360381019061021c9190611c4e565b61077f565b005b61023d60048036038101906102389190611e61565b61079f565b60405161024a9190612231565b60405180910390f35b61026d60048036038101906102689190611be9565b610851565b60405161027a91906124d0565b60405180910390f35b61029d60048036038101906102989190611e61565b610909565b005b6102a76109f3565b6040516102b491906122ce565b60405180910390f35b6102d760048036038101906102d29190611d18565b610a85565b005b6102f360048036038101906102ee9190611c9d565b610c06565b005b61030f600480360381019061030a9190611e61565b610c68565b60405161031c91906122ce565b60405180910390f35b61033f600480360381019061033a9190611c12565b610d0f565b60405161034c9190612298565b60405180910390f35b60007f80ac58cd000000000000000000000000000000000000000000000000000000007bffffffffffffffffffffffffffffffffffffffffffffffffffffffff1916827bffffffffffffffffffffffffffffffffffffffffffffffffffffffff1916148061042057507f5b5e139f000000000000000000000000000000000000000000000000000000007bffffffffffffffffffffffffffffffffffffffffffffffffffffffff1916827bffffffffffffffffffffffffffffffffffffffffffffffffffffffff1916145b80610430575061042f82610da3565b5b9050919050565b606060008054610446906127dd565b80601f0160208091040260200160405190810160405280929190818152602001828054610472906127dd565b80156104bf5780601f10610494576101008083540402835291602001916104bf565b820191906000526020600020905b8154815290600101906020018083116104a257829003601f168201915b5050505050905090565b60006104d482610e0d565b610513576040517f08c379a000000000000000000000000000000000000000000000000000000000815260040161050a90612410565b60405180910390fd5b6004600083815260200190815260200160002060009054906101000a900473ffffffffffffffffffffffffffffffffffffffff169050919050565b60006105598261079f565b90508073ffffffffffffffffffffffffffffffffffffffff168373ffffffffffffffffffffffffffffffffffffffff1614156105ca576040517f08c379a00000000000000000000000000000000000000000000000000000000081526004016105c190612490565b60405180910390fd5b8073ffffffffffffffffffffffffffffffffffffffff166105e9610e79565b73ffffffffffffffffffffffffffffffffffffffff161480610618575061061781610612610e79565b610d0f565b5b610657576040517f08c379a000000000000000000000000000000000000000000000000000000000815260040161064e90612390565b60405180910390fd5b6106618383610e81565b505050565b610677610671610e79565b82610f3a565b6106b6576040517f08c379a00000000000000000000000000000000000000000000000000000000081526004016106ad906124b0565b60405180910390fd5b6106c1838383611018565b505050565b6106d06006611274565b60006106dc600661128a565b90506106e88482611298565b60006106f482856112b6565b90508260086000848152602001908152602001600020908051906020019061071d929190611a0d565b507ffd4fa00116b084e3f9afbd701851e0503eca17ce3f9b77acd99c6807083e27d18286838660405161075394939291906124eb565b60405180910390a15050505050565b600060076000838152602001908152602001600020549050919050565b61079a83838360405180602001604052806000815250610c06565b505050565b6000806002600084815260200190815260200160002060009054906101000a900473ffffffffffffffffffffffffffffffffffffffff169050600073ffffffffffffffffffffffffffffffffffffffff168173ffffffffffffffffffffffffffffffffffffffff161415610848576040517f08c379a000000000000000000000000000000000000000000000000000000000815260040161083f906123d0565b60405180910390fd5b80915050919050565b60008073ffffffffffffffffffffffffffffffffffffffff168273ffffffffffffffffffffffffffffffffffffffff1614156108c2576040517f08c379a00000000000000000000000000000000000000000000000000000000081526004016108b9906123b0565b60405180910390fd5b600360008373ffffffffffffffffffffffffffffffffffffffff1673ffffffffffffffffffffffffffffffffffffffff168152602001908152602001600020549050919050565b60006109148261079f565b90508073ffffffffffffffffffffffffffffffffffffffff163373ffffffffffffffffffffffffffffffffffffffff1614610984576040517f08c379a000000000000000000000000000000000000000000000000000000000815260040161097b90612430565b60405180910390fd5b61098d82611304565b7f2e8dcb038a5246c55d5994f2fcc80bfa5ba23ca27ff51b492478d76e57f16b5e82826007600086815260200190815260200160002054600860008781526020019081526020016000206040516109e79493929190612537565b60405180910390a15050565b606060018054610a02906127dd565b80601f0160208091040260200160405190810160405280929190818152602001828054610a2e906127dd565b8015610a7b5780601f10610a5057610100808354040283529160200191610a7b565b820191906000526020600020905b815481529060010190602001808311610a5e57829003601f168201915b5050505050905090565b610a8d610e79565b73ffffffffffffffffffffffffffffffffffffffff168273ffffffffffffffffffffffffffffffffffffffff161415610afb576040517f08c379a0000000000000000000000000000000000000000000000000000000008152600401610af290612350565b60405180910390fd5b8060056000610b08610e79565b73ffffffffffffffffffffffffffffffffffffffff1673ffffffffffffffffffffffffffffffffffffffff16815260200190815260200160002060008473ffffffffffffffffffffffffffffffffffffffff1673ffffffffffffffffffffffffffffffffffffffff16815260200190815260200160002060006101000a81548160ff0219169083151502179055508173ffffffffffffffffffffffffffffffffffffffff16610bb5610e79565b73ffffffffffffffffffffffffffffffffffffffff167f17307eab39ab6107e8899845ad3d59bd9653f200f220920489ca2b5937696c3183604051610bfa9190612298565b60405180910390a35050565b610c17610c11610e79565b83610f3a565b610c56576040517f08c379a0000000000000000000000000000000000000000000000000000000008152600401610c4d906124b0565b60405180910390fd5b610c6284848484611415565b50505050565b6060610c7382610e0d565b610cb2576040517f08c379a0000000000000000000000000000000000000000000000000000000008152600401610ca990612470565b60405180910390fd5b6000610cbc611471565b90506000815111610cdc5760405180602001604052806000815250610d07565b80610ce684611488565b604051602001610cf792919061220d565b6040516020818303038152906040525b915050919050565b6000600560008473ffffffffffffffffffffffffffffffffffffffff1673ffffffffffffffffffffffffffffffffffffffff16815260200190815260200160002060008373ffffffffffffffffffffffffffffffffffffffff1673ffffffffffffffffffffffffffffffffffffffff16815260200190815260200160002060009054906101000a900460ff16905092915050565b60007f01ffc9a7000000000000000000000000000000000000000000000000000000007bffffffffffffffffffffffffffffffffffffffffffffffffffffffff1916827bffffffffffffffffffffffffffffffffffffffffffffffffffffffff1916149050919050565b60008073ffffffffffffffffffffffffffffffffffffffff166002600084815260200190815260200160002060009054906101000a900473ffffffffffffffffffffffffffffffffffffffff1673ffffffffffffffffffffffffffffffffffffffff1614159050919050565b600033905090565b816004600083815260200190815260200160002060006101000a81548173ffffffffffffffffffffffffffffffffffffffff021916908373ffffffffffffffffffffffffffffffffffffffff160217905550808273ffffffffffffffffffffffffffffffffffffffff16610ef48361079f565b73ffffffffffffffffffffffffffffffffffffffff167f8c5be1e5ebec7d5bd14f71427d1e84f3dd0314c0f7b2291e5b200ac8c7c3b92560405160405180910390a45050565b6000610f4582610e0d565b610f84576040517f08c379a0000000000000000000000000000000000000000000000000000000008152600401610f7b90612370565b60405180910390fd5b6000610f8f8361079f565b90508073ffffffffffffffffffffffffffffffffffffffff168473ffffffffffffffffffffffffffffffffffffffff161480610ffe57508373ffffffffffffffffffffffffffffffffffffffff16610fe6846104c9565b73ffffffffffffffffffffffffffffffffffffffff16145b8061100f575061100e8185610d0f565b5b91505092915050565b8273ffffffffffffffffffffffffffffffffffffffff166110388261079f565b73ffffffffffffffffffffffffffffffffffffffff161461108e576040517f08c379a000000000000000000000000000000000000000000000000000000000815260040161108590612450565b60405180910390fd5b600073ffffffffffffffffffffffffffffffffffffffff168273ffffffffffffffffffffffffffffffffffffffff1614156110fe576040517f08c379a00000000000000000000000000000000000000000000000000000000081526004016110f590612330565b60405180910390fd5b611109838383611635565b611114600082610e81565b6001600360008573ffffffffffffffffffffffffffffffffffffffff1673ffffffffffffffffffffffffffffffffffffffff168152602001908152602001600020600082825461116491906126e9565b925050819055506001600360008473ffffffffffffffffffffffffffffffffffffffff1673ffffffffffffffffffffffffffffffffffffffff16815260200190815260200160002060008282546111bb9190612662565b92505081905550816002600083815260200190815260200160002060006101000a81548173ffffffffffffffffffffffffffffffffffffffff021916908373ffffffffffffffffffffffffffffffffffffffff160217905550808273ffffffffffffffffffffffffffffffffffffffff168473ffffffffffffffffffffffffffffffffffffffff167fddf252ad1be2c89b69c2b068fc378daa952ba7f163c4a11628f55a4df523b3ef60405160405180910390a4505050565b6001816000016000828254019250508190555050565b600081600001549050919050565b6112b282826040518060200160405280600081525061163a565b5050565b600080826040516020016112ca91906121f6565b6040516020818303038152906040528051906020012090508060076000868152602001908152602001600020819055508091505092915050565b600061130f8261079f565b905061131d81600084611635565b611328600083610e81565b6001600360008373ffffffffffffffffffffffffffffffffffffffff1673ffffffffffffffffffffffffffffffffffffffff168152602001908152602001600020600082825461137891906126e9565b925050819055506002600083815260200190815260200160002060006101000a81549073ffffffffffffffffffffffffffffffffffffffff021916905581600073ffffffffffffffffffffffffffffffffffffffff168273ffffffffffffffffffffffffffffffffffffffff167fddf252ad1be2c89b69c2b068fc378daa952ba7f163c4a11628f55a4df523b3ef60405160405180910390a45050565b611420848484611018565b61142c84848484611695565b61146b576040517f08c379a0000000000000000000000000000000000000000000000000000000008152600401611462906122f0565b60405180910390fd5b50505050565b606060405180602001604052806000815250905090565b606060008214156114d0576040518060400160405280600181526020017f30000000000000000000000000000000000000000000000000000000000000008152509050611630565b600082905060005b600082146115025780806114eb90612840565b915050600a826114fb91906126b8565b91506114d8565b60008167ffffffffffffffff811115611544577f4e487b7100000000000000000000000000000000000000000000000000000000600052604160045260246000fd5b6040519080825280601f01601f1916602001820160405280156115765781602001600182028036833780820191505090505b5090505b600085146116295760018261158f91906126e9565b9150600a8561159e9190612889565b60306115aa9190612662565b60f81b8183815181106115e6577f4e487b7100000000000000000000000000000000000000000000000000000000600052603260045260246000fd5b60200101907effffffffffffffffffffffffffffffffffffffffffffffffffffffffffffff1916908160001a905350600a8561162291906126b8565b945061157a565b8093505050505b919050565b505050565b611644838361182c565b6116516000848484611695565b611690576040517f08c379a0000000000000000000000000000000000000000000000000000000008152600401611687906122f0565b60405180910390fd5b505050565b60006116b68473ffffffffffffffffffffffffffffffffffffffff166119fa565b1561181f578373ffffffffffffffffffffffffffffffffffffffff1663150b7a026116df610e79565b8786866040518563ffffffff1660e01b8152600401611701949392919061224c565b602060405180830381600087803b15801561171b57600080fd5b505af192505050801561174c57506040513d601f19601f820116820180604052508101906117499190611e38565b60015b6117cf573d806000811461177c576040519150601f19603f3d011682016040523d82523d6000602084013e611781565b606091505b506000815114156117c7576040517f08c379a00000000000000000000000000000000000000000000000000000000081526004016117be906122f0565b60405180910390fd5b805181602001fd5b63150b7a0260e01b7bffffffffffffffffffffffffffffffffffffffffffffffffffffffff1916817bffffffffffffffffffffffffffffffffffffffffffffffffffffffff191614915050611824565b600190505b949350505050565b600073ffffffffffffffffffffffffffffffffffffffff168273ffffffffffffffffffffffffffffffffffffffff16141561189c576040517f08c379a0000000000000000000000000000000000000000000000000000000008152600401611893906123f0565b60405180910390fd5b6118a581610e0d565b156118e5576040517f08c379a00000000000000000000000000000000000000000000000000000000081526004016118dc90612310565b60405180910390fd5b6118f160008383611635565b6001600360008473ffffffffffffffffffffffffffffffffffffffff1673ffffffffffffffffffffffffffffffffffffffff16815260200190815260200160002060008282546119419190612662565b92505081905550816002600083815260200190815260200160002060006101000a81548173ffffffffffffffffffffffffffffffffffffffff021916908373ffffffffffffffffffffffffffffffffffffffff160217905550808273ffffffffffffffffffffffffffffffffffffffff16600073ffffffffffffffffffffffffffffffffffffffff167fddf252ad1be2c89b69c2b068fc378daa952ba7f163c4a11628f55a4df523b3ef60405160405180910390a45050565b600080823b905060008111915050919050565b828054611a19906127dd565b90600052602060002090601f016020900481019282611a3b5760008555611a82565b82601f10611a5457805160ff1916838001178555611a82565b82800160010185558215611a82579182015b82811115611a81578251825591602001919060010190611a66565b5b509050611a8f9190611a93565b5090565b5b80821115611aac576000816000905550600101611a94565b5090565b6000611ac3611abe846125a8565b612583565b905082815260208101848484011115611adb57600080fd5b611ae684828561279b565b509392505050565b6000611b01611afc846125d9565b612583565b905082815260208101848484011115611b1957600080fd5b611b2484828561279b565b509392505050565b600081359050611b3b81612db6565b92915050565b600081359050611b5081612dcd565b92915050565b600081359050611b6581612de4565b92915050565b600081519050611b7a81612de4565b92915050565b600082601f830112611b9157600080fd5b8135611ba1848260208601611ab0565b91505092915050565b600082601f830112611bbb57600080fd5b8135611bcb848260208601611aee565b91505092915050565b600081359050611be381612dfb565b92915050565b600060208284031215611bfb57600080fd5b6000611c0984828501611b2c565b91505092915050565b60008060408385031215611c2557600080fd5b6000611c3385828601611b2c565b9250506020611c4485828601611b2c565b9150509250929050565b600080600060608486031215611c6357600080fd5b6000611c7186828701611b2c565b9350506020611c8286828701611b2c565b9250506040611c9386828701611bd4565b9150509250925092565b60008060008060808587031215611cb357600080fd5b6000611cc187828801611b2c565b9450506020611cd287828801611b2c565b9350506040611ce387828801611bd4565b925050606085013567ffffffffffffffff811115611d0057600080fd5b611d0c87828801611b80565b91505092959194509250565b60008060408385031215611d2b57600080fd5b6000611d3985828601611b2c565b9250506020611d4a85828601611b41565b9150509250929050565b600080600060608486031215611d6957600080fd5b6000611d7786828701611b2c565b935050602084013567ffffffffffffffff811115611d9457600080fd5b611da086828701611baa565b925050604084013567ffffffffffffffff811115611dbd57600080fd5b611dc986828701611baa565b9150509250925092565b60008060408385031215611de657600080fd5b6000611df485828601611b2c565b9250506020611e0585828601611bd4565b9150509250929050565b600060208284031215611e2157600080fd5b6000611e2f84828501611b56565b91505092915050565b600060208284031215611e4a57600080fd5b6000611e5884828501611b6b565b91505092915050565b600060208284031215611e7357600080fd5b6000611e8184828501611bd4565b91505092915050565b611e938161271d565b82525050565b611ea28161272f565b82525050565b611eb18161273b565b82525050565b6000611ec28261261f565b611ecc8185612635565b9350611edc8185602086016127aa565b611ee581612976565b840191505092915050565b6000611efb8261262a565b611f058185612646565b9350611f158185602086016127aa565b611f1e81612976565b840191505092915050565b6000611f348261262a565b611f3e8185612657565b9350611f4e8185602086016127aa565b80840191505092915050565b60008154611f67816127dd565b611f718186612646565b94506001821660008114611f8c5760018114611f9e57611fd1565b60ff1983168652602086019350611fd1565b611fa78561260a565b60005b83811015611fc957815481890152600182019150602081019050611faa565b808801955050505b50505092915050565b6000611fe7603283612646565b9150611ff282612987565b604082019050919050565b600061200a601c83612646565b9150612015826129d6565b602082019050919050565b600061202d602483612646565b9150612038826129ff565b604082019050919050565b6000612050601983612646565b915061205b82612a4e565b602082019050919050565b6000612073602c83612646565b915061207e82612a77565b604082019050919050565b6000612096603883612646565b91506120a182612ac6565b604082019050919050565b60006120b9602a83612646565b91506120c482612b15565b604082019050919050565b60006120dc602983612646565b91506120e782612b64565b604082019050919050565b60006120ff602083612646565b915061210a82612bb3565b602082019050919050565b6000612122602c83612646565b915061212d82612bdc565b604082019050919050565b6000612145602183612646565b915061215082612c2b565b604082019050919050565b6000612168602983612646565b915061217382612c7a565b604082019050919050565b600061218b602f83612646565b915061219682612cc9565b604082019050919050565b60006121ae602183612646565b91506121b982612d18565b604082019050919050565b60006121d1603183612646565b91506121dc82612d67565b604082019050919050565b6121f081612791565b82525050565b60006122028284611f29565b915081905092915050565b60006122198285611f29565b91506122258284611f29565b91508190509392505050565b60006020820190506122466000830184611e8a565b92915050565b60006080820190506122616000830187611e8a565b61226e6020830186611e8a565b61227b60408301856121e7565b818103606083015261228d8184611eb7565b905095945050505050565b60006020820190506122ad6000830184611e99565b92915050565b60006020820190506122c86000830184611ea8565b92915050565b600060208201905081810360008301526122e88184611ef0565b905092915050565b6000602082019050818103600083015261230981611fda565b9050919050565b6000602082019050818103600083015261232981611ffd565b9050919050565b6000602082019050818103600083015261234981612020565b9050919050565b6000602082019050818103600083015261236981612043565b9050919050565b6000602082019050818103600083015261238981612066565b9050919050565b600060208201905081810360008301526123a981612089565b9050919050565b600060208201905081810360008301526123c9816120ac565b9050919050565b600060208201905081810360008301526123e9816120cf565b9050919050565b60006020820190508181036000830152612409816120f2565b9050919050565b6000602082019050818103600083015261242981612115565b9050919050565b6000602082019050818103600083015261244981612138565b9050919050565b600060208201905081810360008301526124698161215b565b9050919050565b600060208201905081810360008301526124898161217e565b9050919050565b600060208201905081810360008301526124a9816121a1565b9050919050565b600060208201905081810360008301526124c9816121c4565b9050919050565b60006020820190506124e560008301846121e7565b92915050565b600060808201905061250060008301876121e7565b61250d6020830186611e8a565b61251a6040830185611ea8565b818103606083015261252c8184611ef0565b905095945050505050565b600060808201905061254c60008301876121e7565b6125596020830186611e8a565b6125666040830185611ea8565b81810360608301526125788184611f5a565b905095945050505050565b600061258d61259e565b9050612599828261280f565b919050565b6000604051905090565b600067ffffffffffffffff8211156125c3576125c2612947565b5b6125cc82612976565b9050602081019050919050565b600067ffffffffffffffff8211156125f4576125f3612947565b5b6125fd82612976565b9050602081019050919050565b60008190508160005260206000209050919050565b600081519050919050565b600081519050919050565b600082825260208201905092915050565b600082825260208201905092915050565b600081905092915050565b600061266d82612791565b915061267883612791565b9250827fffffffffffffffffffffffffffffffffffffffffffffffffffffffffffffffff038211156126ad576126ac6128ba565b5b828201905092915050565b60006126c382612791565b91506126ce83612791565b9250826126de576126dd6128e9565b5b828204905092915050565b60006126f482612791565b91506126ff83612791565b925082821015612712576127116128ba565b5b828203905092915050565b600061272882612771565b9050919050565b60008115159050919050565b6000819050919050565b60007fffffffff0000000000000000000000000000000000000000000000000000000082169050919050565b600073ffffffffffffffffffffffffffffffffffffffff82169050919050565b6000819050919050565b82818337600083830152505050565b60005b838110156127c85780820151818401526020810190506127ad565b838111156127d7576000848401525b50505050565b600060028204905060018216806127f557607f821691505b6020821081141561280957612808612918565b5b50919050565b61281882612976565b810181811067ffffffffffffffff8211171561283757612836612947565b5b80604052505050565b600061284b82612791565b91507fffffffffffffffffffffffffffffffffffffffffffffffffffffffffffffffff82141561287e5761287d6128ba565b5b600182019050919050565b600061289482612791565b915061289f83612791565b9250826128af576128ae6128e9565b5b828206905092915050565b7f4e487b7100000000000000000000000000000000000000000000000000000000600052601160045260246000fd5b7f4e487b7100000000000000000000000000000000000000000000000000000000600052601260045260246000fd5b7f4e487b7100000000000000000000000000000000000000000000000000000000600052602260045260246000fd5b7f4e487b7100000000000000000000000000000000000000000000000000000000600052604160045260246000fd5b6000601f19601f8301169050919050565b7f4552433732313a207472616e7366657220746f206e6f6e20455243373231526560008201527f63656976657220696d706c656d656e7465720000000000000000000000000000602082015250565b7f4552433732313a20746f6b656e20616c7265616479206d696e74656400000000600082015250565b7f4552433732313a207472616e7366657220746f20746865207a65726f2061646460008201527f7265737300000000000000000000000000000000000000000000000000000000602082015250565b7f4552433732313a20617070726f766520746f2063616c6c657200000000000000600082015250565b7f4552433732313a206f70657261746f7220717565727920666f72206e6f6e657860008201527f697374656e7420746f6b656e0000000000000000000000000000000000000000602082015250565b7f4552433732313a20617070726f76652063616c6c6572206973206e6f74206f7760008201527f6e6572206e6f7220617070726f76656420666f7220616c6c0000000000000000602082015250565b7f4552433732313a2062616c616e636520717565727920666f7220746865207a6560008201527f726f206164647265737300000000000000000000000000000000000000000000602082015250565b7f4552433732313a206f776e657220717565727920666f72206e6f6e657869737460008201527f656e7420746f6b656e0000000000000000000000000000000000000000000000602082015250565b7f4552433732313a206d696e7420746f20746865207a65726f2061646472657373600082015250565b7f4552433732313a20617070726f76656420717565727920666f72206e6f6e657860008201527f697374656e7420746f6b656e0000000000000000000000000000000000000000602082015250565b7f596f7520617265206e6f7420746865206f776e6572206f662074686973204e4660008201527f5400000000000000000000000000000000000000000000000000000000000000602082015250565b7f4552433732313a207472616e73666572206f6620746f6b656e2074686174206960008201527f73206e6f74206f776e0000000000000000000000000000000000000000000000602082015250565b7f4552433732314d657461646174613a2055524920717565727920666f72206e6f60008201527f6e6578697374656e7420746f6b656e0000000000000000000000000000000000602082015250565b7f4552433732313a20617070726f76616c20746f2063757272656e74206f776e6560008201527f7200000000000000000000000000000000000000000000000000000000000000602082015250565b7f4552433732313a207472616e736665722063616c6c6572206973206e6f74206f60008201527f776e6572206e6f7220617070726f766564000000000000000000000000000000602082015250565b612dbf8161271d565b8114612dca57600080fd5b50565b612dd68161272f565b8114612de157600080fd5b50565b612ded81612745565b8114612df857600080fd5b50565b612e0481612791565b8114612e0f57600080fd5b5056fea2646970667358221220765415a8bf7c76a6a16f6cc12c25589a0466b8eb93b4235c4e4fbe598d76bc3c64736f6c63430008010033",
  "immutableReferences": {},
  "source": "// SPDX-License-Identifier: MIT\npragma solidity ^0.8.0;\n\nimport \"@openzeppelin/contracts/token/ERC721/ERC721.sol\";\nimport \"@openzeppelin/contracts/utils/Counters.sol\";\n\ncontract NFTCollection is ERC721 {\n    using Counters for Counters.Counter;\n    Counters.Counter private _tokenIds;\n\n    //mapping for token URIs\n    mapping (uint256 => bytes32) private _tokenURIs;\n\n    //mapping for token titles\n    mapping (uint256 => string) private _titles;\n\n    event mintedToken(uint256 tokenID, address userAddress, bytes32 tokenURI, string title);\n    event burnedToken(uint256 tokenID, address userAddress, bytes32 tokenURI, string title);\n\n    constructor() ERC721(\"NFTCollection\", \"NFTC\") {}\n\n    function _setTokenURI(uint256 tokenID, string memory _tokenURI) internal virtual returns (bytes32) {\n        bytes32 _hashedTokenURI = keccak256(abi.encodePacked(_tokenURI));\n        _tokenURIs[tokenID] = _hashedTokenURI;\n        return _hashedTokenURI;\n    }\n\n    function mintToken(address userAddress, string memory _tokenURI, string memory _title) public {\n        _tokenIds.increment();\n\n        uint256 newTokenId = _tokenIds.current();\n        _safeMint(userAddress, newTokenId);\n        bytes32 _hashedTokenURI = _setTokenURI(newTokenId, _tokenURI);\n        _titles[newTokenId] = _title;\n        emit mintedToken(newTokenId, userAddress, _hashedTokenURI, _title);\n    }\n\n    function burnToken(uint256 tokenID) public {\n        address owner = ERC721.ownerOf(tokenID);\n        require(msg.sender == owner, \"You are not the owner of this NFT\");\n        _burn(tokenID);\n        emit burnedToken(tokenID, owner, _tokenURIs[tokenID], _titles[tokenID]);\n    }\n\n    function getTokenURI(uint256 tokenID) public view virtual returns (bytes32){\n        return _tokenURIs[tokenID];\n    }\n\n\n}\n",
  "sourcePath": "/home/luca/Desktop/NFT-Marketplace/contracts/NFTCollection.sol",
  "compiler": {
    "name": "solc",
    "version": "0.8.1+commit.df193b15.Emscripten.clang"
  },
  "schemaVersion": "3.4.2",
  "updatedAt": "2021-09-10T14:12:25.667Z",
  "networkType": "ethereum",
  "devdoc": {
    "kind": "dev",
    "methods": {
      "approve(address,uint256)": {
        "details": "See {IERC721-approve}."
      },
      "balanceOf(address)": {
        "details": "See {IERC721-balanceOf}."
      },
      "getApproved(uint256)": {
        "details": "See {IERC721-getApproved}."
      },
      "isApprovedForAll(address,address)": {
        "details": "See {IERC721-isApprovedForAll}."
      },
      "name()": {
        "details": "See {IERC721Metadata-name}."
      },
      "ownerOf(uint256)": {
        "details": "See {IERC721-ownerOf}."
      },
      "safeTransferFrom(address,address,uint256)": {
        "details": "See {IERC721-safeTransferFrom}."
      },
      "safeTransferFrom(address,address,uint256,bytes)": {
        "details": "See {IERC721-safeTransferFrom}."
      },
      "setApprovalForAll(address,bool)": {
        "details": "See {IERC721-setApprovalForAll}."
      },
      "supportsInterface(bytes4)": {
        "details": "See {IERC165-supportsInterface}."
      },
      "symbol()": {
        "details": "See {IERC721Metadata-symbol}."
      },
      "tokenURI(uint256)": {
        "details": "See {IERC721Metadata-tokenURI}."
      },
      "transferFrom(address,address,uint256)": {
        "details": "See {IERC721-transferFrom}."
      }
    },
    "version": 1
  },
  "userdoc": {
    "kind": "user",
    "methods": {},
    "version": 1
  }
}