{
  "contractName": "NFTItem",
  "abi": [
    {
      "inputs": [],
      "stateMutability": "nonpayable",
      "type": "constructor"
    },
    {
      "anonymous": false,
      "inputs": [
        {
          "indexed": true,
          "internalType": "address",
          "name": "owner",
          "type": "address"
        },
        {
          "indexed": true,
          "internalType": "address",
          "name": "approved",
          "type": "address"
        },
        {
          "indexed": true,
          "internalType": "uint256",
          "name": "tokenId",
          "type": "uint256"
        }
      ],
      "name": "Approval",
      "type": "event"
    },
    {
      "anonymous": false,
      "inputs": [
        {
          "indexed": true,
          "internalType": "address",
          "name": "owner",
          "type": "address"
        },
        {
          "indexed": true,
          "internalType": "address",
          "name": "operator",
          "type": "address"
        },
        {
          "indexed": false,
          "internalType": "bool",
          "name": "approved",
          "type": "bool"
        }
      ],
      "name": "ApprovalForAll",
      "type": "event"
    },
    {
      "anonymous": false,
      "inputs": [
        {
          "indexed": true,
          "internalType": "address",
          "name": "from",
          "type": "address"
        },
        {
          "indexed": true,
          "internalType": "address",
          "name": "to",
          "type": "address"
        },
        {
          "indexed": true,
          "internalType": "uint256",
          "name": "tokenId",
          "type": "uint256"
        }
      ],
      "name": "Transfer",
      "type": "event"
    },
    {
      "inputs": [
        {
          "internalType": "address",
          "name": "to",
          "type": "address"
        },
        {
          "internalType": "uint256",
          "name": "tokenId",
          "type": "uint256"
        }
      ],
      "name": "approve",
      "outputs": [],
      "stateMutability": "nonpayable",
      "type": "function"
    },
    {
      "inputs": [
        {
          "internalType": "address",
          "name": "owner",
          "type": "address"
        }
      ],
      "name": "balanceOf",
      "outputs": [
        {
          "internalType": "uint256",
          "name": "",
          "type": "uint256"
        }
      ],
      "stateMutability": "view",
      "type": "function"
    },
    {
      "inputs": [
        {
          "internalType": "uint256",
          "name": "tokenId",
          "type": "uint256"
        }
      ],
      "name": "getApproved",
      "outputs": [
        {
          "internalType": "address",
          "name": "",
          "type": "address"
        }
      ],
      "stateMutability": "view",
      "type": "function"
    },
    {
      "inputs": [
        {
          "internalType": "address",
          "name": "owner",
          "type": "address"
        },
        {
          "internalType": "address",
          "name": "operator",
          "type": "address"
        }
      ],
      "name": "isApprovedForAll",
      "outputs": [
        {
          "internalType": "bool",
          "name": "",
          "type": "bool"
        }
      ],
      "stateMutability": "view",
      "type": "function"
    },
    {
      "inputs": [],
      "name": "name",
      "outputs": [
        {
          "internalType": "string",
          "name": "",
          "type": "string"
        }
      ],
      "stateMutability": "view",
      "type": "function"
    },
    {
      "inputs": [
        {
          "internalType": "uint256",
          "name": "tokenId",
          "type": "uint256"
        }
      ],
      "name": "ownerOf",
      "outputs": [
        {
          "internalType": "address",
          "name": "",
          "type": "address"
        }
      ],
      "stateMutability": "view",
      "type": "function"
    },
    {
      "inputs": [
        {
          "internalType": "address",
          "name": "from",
          "type": "address"
        },
        {
          "internalType": "address",
          "name": "to",
          "type": "address"
        },
        {
          "internalType": "uint256",
          "name": "tokenId",
          "type": "uint256"
        }
      ],
      "name": "safeTransferFrom",
      "outputs": [],
      "stateMutability": "nonpayable",
      "type": "function"
    },
    {
      "inputs": [
        {
          "internalType": "address",
          "name": "from",
          "type": "address"
        },
        {
          "internalType": "address",
          "name": "to",
          "type": "address"
        },
        {
          "internalType": "uint256",
          "name": "tokenId",
          "type": "uint256"
        },
        {
          "internalType": "bytes",
          "name": "_data",
          "type": "bytes"
        }
      ],
      "name": "safeTransferFrom",
      "outputs": [],
      "stateMutability": "nonpayable",
      "type": "function"
    },
    {
      "inputs": [
        {
          "internalType": "address",
          "name": "operator",
          "type": "address"
        },
        {
          "internalType": "bool",
          "name": "approved",
          "type": "bool"
        }
      ],
      "name": "setApprovalForAll",
      "outputs": [],
      "stateMutability": "nonpayable",
      "type": "function"
    },
    {
      "inputs": [
        {
          "internalType": "bytes4",
          "name": "interfaceId",
          "type": "bytes4"
        }
      ],
      "name": "supportsInterface",
      "outputs": [
        {
          "internalType": "bool",
          "name": "",
          "type": "bool"
        }
      ],
      "stateMutability": "view",
      "type": "function"
    },
    {
      "inputs": [],
      "name": "symbol",
      "outputs": [
        {
          "internalType": "string",
          "name": "",
          "type": "string"
        }
      ],
      "stateMutability": "view",
      "type": "function"
    },
    {
      "inputs": [
        {
          "internalType": "address",
          "name": "from",
          "type": "address"
        },
        {
          "internalType": "address",
          "name": "to",
          "type": "address"
        },
        {
          "internalType": "uint256",
          "name": "tokenId",
          "type": "uint256"
        }
      ],
      "name": "transferFrom",
      "outputs": [],
      "stateMutability": "nonpayable",
      "type": "function"
    },
    {
      "inputs": [
        {
          "internalType": "address",
          "name": "userAddress",
          "type": "address"
        },
        {
          "internalType": "string",
          "name": "_tokenURI",
          "type": "string"
        }
      ],
      "name": "newItem",
      "outputs": [
        {
          "internalType": "uint256",
          "name": "",
          "type": "uint256"
        }
      ],
      "stateMutability": "nonpayable",
      "type": "function"
    },
    {
      "inputs": [
        {
          "internalType": "uint256",
          "name": "tokenID",
          "type": "uint256"
        }
      ],
      "name": "tokenURI",
      "outputs": [
        {
          "internalType": "string",
          "name": "",
          "type": "string"
        }
      ],
      "stateMutability": "view",
      "type": "function"
    }
  ],
  "bytecode": "0x60806040523480156200001157600080fd5b506040518060400160405280600781526020017f4e46544974656d000000000000000000000000000000000000000000000000008152506040518060400160405280600481526020017f4e46544900000000000000000000000000000000000000000000000000000000815250816000908051906020019062000096929190620000b8565b508060019080519060200190620000af929190620000b8565b505050620001cd565b828054620000c69062000168565b90600052602060002090601f016020900481019282620000ea576000855562000136565b82601f106200010557805160ff191683800117855562000136565b8280016001018555821562000136579182015b828111156200013557825182559160200191906001019062000118565b5b50905062000145919062000149565b5090565b5b80821115620001645760008160009055506001016200014a565b5090565b600060028204905060018216806200018157607f821691505b602082108114156200019857620001976200019e565b5b50919050565b7f4e487b7100000000000000000000000000000000000000000000000000000000600052602260045260246000fd5b61251c80620001dd6000396000f3fe608060405234801561001057600080fd5b50600436106100ea5760003560e01c806370a082311161008c578063a22cb46511610066578063a22cb4651461026f578063b88d4fde1461028b578063c87b56dd146102a7578063e985e9c5146102d7576100ea565b806370a08231146101f157806389f057611461022157806395d89b4114610251576100ea565b8063095ea7b3116100c8578063095ea7b31461016d57806323b872dd1461018957806342842e0e146101a55780636352211e146101c1576100ea565b806301ffc9a7146100ef57806306fdde031461011f578063081812fc1461013d575b600080fd5b610109600480360381019061010491906118b9565b610307565b6040516101169190611c01565b60405180910390f35b6101276103e9565b6040516101349190611c1c565b60405180910390f35b6101576004803603810190610152919061190b565b61047b565b6040516101649190611b9a565b60405180910390f35b6101876004803603810190610182919061187d565b610500565b005b6101a3600480360381019061019e9190611723565b610618565b005b6101bf60048036038101906101ba9190611723565b610678565b005b6101db60048036038101906101d6919061190b565b610698565b6040516101e89190611b9a565b60405180910390f35b61020b600480360381019061020691906116be565b61074a565b6040516102189190611dde565b60405180910390f35b61023b60048036038101906102369190611829565b610802565b6040516102489190611dde565b60405180910390f35b61025961083a565b6040516102669190611c1c565b60405180910390f35b610289600480360381019061028491906117ed565b6108cc565b005b6102a560048036038101906102a09190611772565b610a4d565b005b6102c160048036038101906102bc919061190b565b610aaf565b6040516102ce9190611c1c565b60405180910390f35b6102f160048036038101906102ec91906116e7565b610b54565b6040516102fe9190611c01565b60405180910390f35b60007f80ac58cd000000000000000000000000000000000000000000000000000000007bffffffffffffffffffffffffffffffffffffffffffffffffffffffff1916827bffffffffffffffffffffffffffffffffffffffffffffffffffffffff191614806103d257507f5b5e139f000000000000000000000000000000000000000000000000000000007bffffffffffffffffffffffffffffffffffffffffffffffffffffffff1916827bffffffffffffffffffffffffffffffffffffffffffffffffffffffff1916145b806103e257506103e182610be8565b5b9050919050565b6060600080546103f890611ff8565b80601f016020809104026020016040519081016040528092919081815260200182805461042490611ff8565b80156104715780601f1061044657610100808354040283529160200191610471565b820191906000526020600020905b81548152906001019060200180831161045457829003601f168201915b5050505050905090565b600061048682610c52565b6104c5576040517f08c379a00000000000000000000000000000000000000000000000000000000081526004016104bc90611d5e565b60405180910390fd5b6004600083815260200190815260200160002060009054906101000a900473ffffffffffffffffffffffffffffffffffffffff169050919050565b600061050b82610698565b90508073ffffffffffffffffffffffffffffffffffffffff168373ffffffffffffffffffffffffffffffffffffffff16141561057c576040517f08c379a000000000000000000000000000000000000000000000000000000000815260040161057390611d9e565b60405180910390fd5b8073ffffffffffffffffffffffffffffffffffffffff1661059b610cbe565b73ffffffffffffffffffffffffffffffffffffffff1614806105ca57506105c9816105c4610cbe565b610b54565b5b610609576040517f08c379a000000000000000000000000000000000000000000000000000000000815260040161060090611cde565b60405180910390fd5b6106138383610cc6565b505050565b610629610623610cbe565b82610d7f565b610668576040517f08c379a000000000000000000000000000000000000000000000000000000000815260040161065f90611dbe565b60405180910390fd5b610673838383610e5d565b505050565b61069383838360405180602001604052806000815250610a4d565b505050565b6000806002600084815260200190815260200160002060009054906101000a900473ffffffffffffffffffffffffffffffffffffffff169050600073ffffffffffffffffffffffffffffffffffffffff168173ffffffffffffffffffffffffffffffffffffffff161415610741576040517f08c379a000000000000000000000000000000000000000000000000000000000815260040161073890611d1e565b60405180910390fd5b80915050919050565b60008073ffffffffffffffffffffffffffffffffffffffff168273ffffffffffffffffffffffffffffffffffffffff1614156107bb576040517f08c379a00000000000000000000000000000000000000000000000000000000081526004016107b290611cfe565b60405180910390fd5b600360008373ffffffffffffffffffffffffffffffffffffffff1673ffffffffffffffffffffffffffffffffffffffff168152602001908152602001600020549050919050565b600061080e60066110b9565b600061081a60066110cf565b905061082684826110dd565b61083081846112ab565b8091505092915050565b60606001805461084990611ff8565b80601f016020809104026020016040519081016040528092919081815260200182805461087590611ff8565b80156108c25780601f10610897576101008083540402835291602001916108c2565b820191906000526020600020905b8154815290600101906020018083116108a557829003601f168201915b5050505050905090565b6108d4610cbe565b73ffffffffffffffffffffffffffffffffffffffff168273ffffffffffffffffffffffffffffffffffffffff161415610942576040517f08c379a000000000000000000000000000000000000000000000000000000000815260040161093990611c9e565b60405180910390fd5b806005600061094f610cbe565b73ffffffffffffffffffffffffffffffffffffffff1673ffffffffffffffffffffffffffffffffffffffff16815260200190815260200160002060008473ffffffffffffffffffffffffffffffffffffffff1673ffffffffffffffffffffffffffffffffffffffff16815260200190815260200160002060006101000a81548160ff0219169083151502179055508173ffffffffffffffffffffffffffffffffffffffff166109fc610cbe565b73ffffffffffffffffffffffffffffffffffffffff167f17307eab39ab6107e8899845ad3d59bd9653f200f220920489ca2b5937696c3183604051610a419190611c01565b60405180910390a35050565b610a5e610a58610cbe565b83610d7f565b610a9d576040517f08c379a0000000000000000000000000000000000000000000000000000000008152600401610a9490611dbe565b60405180910390fd5b610aa9848484846112d7565b50505050565b6060600760008381526020019081526020016000208054610acf90611ff8565b80601f0160208091040260200160405190810160405280929190818152602001828054610afb90611ff8565b8015610b485780601f10610b1d57610100808354040283529160200191610b48565b820191906000526020600020905b815481529060010190602001808311610b2b57829003601f168201915b50505050509050919050565b6000600560008473ffffffffffffffffffffffffffffffffffffffff1673ffffffffffffffffffffffffffffffffffffffff16815260200190815260200160002060008373ffffffffffffffffffffffffffffffffffffffff1673ffffffffffffffffffffffffffffffffffffffff16815260200190815260200160002060009054906101000a900460ff16905092915050565b60007f01ffc9a7000000000000000000000000000000000000000000000000000000007bffffffffffffffffffffffffffffffffffffffffffffffffffffffff1916827bffffffffffffffffffffffffffffffffffffffffffffffffffffffff1916149050919050565b60008073ffffffffffffffffffffffffffffffffffffffff166002600084815260200190815260200160002060009054906101000a900473ffffffffffffffffffffffffffffffffffffffff1673ffffffffffffffffffffffffffffffffffffffff1614159050919050565b600033905090565b816004600083815260200190815260200160002060006101000a81548173ffffffffffffffffffffffffffffffffffffffff021916908373ffffffffffffffffffffffffffffffffffffffff160217905550808273ffffffffffffffffffffffffffffffffffffffff16610d3983610698565b73ffffffffffffffffffffffffffffffffffffffff167f8c5be1e5ebec7d5bd14f71427d1e84f3dd0314c0f7b2291e5b200ac8c7c3b92560405160405180910390a45050565b6000610d8a82610c52565b610dc9576040517f08c379a0000000000000000000000000000000000000000000000000000000008152600401610dc090611cbe565b60405180910390fd5b6000610dd483610698565b90508073ffffffffffffffffffffffffffffffffffffffff168473ffffffffffffffffffffffffffffffffffffffff161480610e4357508373ffffffffffffffffffffffffffffffffffffffff16610e2b8461047b565b73ffffffffffffffffffffffffffffffffffffffff16145b80610e545750610e538185610b54565b5b91505092915050565b8273ffffffffffffffffffffffffffffffffffffffff16610e7d82610698565b73ffffffffffffffffffffffffffffffffffffffff1614610ed3576040517f08c379a0000000000000000000000000000000000000000000000000000000008152600401610eca90611d7e565b60405180910390fd5b600073ffffffffffffffffffffffffffffffffffffffff168273ffffffffffffffffffffffffffffffffffffffff161415610f43576040517f08c379a0000000000000000000000000000000000000000000000000000000008152600401610f3a90611c7e565b60405180910390fd5b610f4e838383611333565b610f59600082610cc6565b6001600360008573ffffffffffffffffffffffffffffffffffffffff1673ffffffffffffffffffffffffffffffffffffffff1681526020019081526020016000206000828254610fa99190611f0e565b925050819055506001600360008473ffffffffffffffffffffffffffffffffffffffff1673ffffffffffffffffffffffffffffffffffffffff16815260200190815260200160002060008282546110009190611eb8565b92505081905550816002600083815260200190815260200160002060006101000a81548173ffffffffffffffffffffffffffffffffffffffff021916908373ffffffffffffffffffffffffffffffffffffffff160217905550808273ffffffffffffffffffffffffffffffffffffffff168473ffffffffffffffffffffffffffffffffffffffff167fddf252ad1be2c89b69c2b068fc378daa952ba7f163c4a11628f55a4df523b3ef60405160405180910390a4505050565b6001816000016000828254019250508190555050565b600081600001549050919050565b600073ffffffffffffffffffffffffffffffffffffffff168273ffffffffffffffffffffffffffffffffffffffff16141561114d576040517f08c379a000000000000000000000000000000000000000000000000000000000815260040161114490611d3e565b60405180910390fd5b61115681610c52565b15611196576040517f08c379a000000000000000000000000000000000000000000000000000000000815260040161118d90611c5e565b60405180910390fd5b6111a260008383611333565b6001600360008473ffffffffffffffffffffffffffffffffffffffff1673ffffffffffffffffffffffffffffffffffffffff16815260200190815260200160002060008282546111f29190611eb8565b92505081905550816002600083815260200190815260200160002060006101000a81548173ffffffffffffffffffffffffffffffffffffffff021916908373ffffffffffffffffffffffffffffffffffffffff160217905550808273ffffffffffffffffffffffffffffffffffffffff16600073ffffffffffffffffffffffffffffffffffffffff167fddf252ad1be2c89b69c2b068fc378daa952ba7f163c4a11628f55a4df523b3ef60405160405180910390a45050565b806007600084815260200190815260200160002090805190602001906112d29291906114e2565b505050565b6112e2848484610e5d565b6112ee84848484611338565b61132d576040517f08c379a000000000000000000000000000000000000000000000000000000000815260040161132490611c3e565b60405180910390fd5b50505050565b505050565b60006113598473ffffffffffffffffffffffffffffffffffffffff166114cf565b156114c2578373ffffffffffffffffffffffffffffffffffffffff1663150b7a02611382610cbe565b8786866040518563ffffffff1660e01b81526004016113a49493929190611bb5565b602060405180830381600087803b1580156113be57600080fd5b505af19250505080156113ef57506040513d601f19601f820116820180604052508101906113ec91906118e2565b60015b611472573d806000811461141f576040519150601f19603f3d011682016040523d82523d6000602084013e611424565b606091505b5060008151141561146a576040517f08c379a000000000000000000000000000000000000000000000000000000000815260040161146190611c3e565b60405180910390fd5b805181602001fd5b63150b7a0260e01b7bffffffffffffffffffffffffffffffffffffffffffffffffffffffff1916817bffffffffffffffffffffffffffffffffffffffffffffffffffffffff1916149150506114c7565b600190505b949350505050565b600080823b905060008111915050919050565b8280546114ee90611ff8565b90600052602060002090601f0160209004810192826115105760008555611557565b82601f1061152957805160ff1916838001178555611557565b82800160010185558215611557579182015b8281111561155657825182559160200191906001019061153b565b5b5090506115649190611568565b5090565b5b80821115611581576000816000905550600101611569565b5090565b600061159861159384611e1e565b611df9565b9050828152602081018484840111156115b057600080fd5b6115bb848285611fb6565b509392505050565b60006115d66115d184611e4f565b611df9565b9050828152602081018484840111156115ee57600080fd5b6115f9848285611fb6565b509392505050565b6000813590506116108161248a565b92915050565b600081359050611625816124a1565b92915050565b60008135905061163a816124b8565b92915050565b60008151905061164f816124b8565b92915050565b600082601f83011261166657600080fd5b8135611676848260208601611585565b91505092915050565b600082601f83011261169057600080fd5b81356116a08482602086016115c3565b91505092915050565b6000813590506116b8816124cf565b92915050565b6000602082840312156116d057600080fd5b60006116de84828501611601565b91505092915050565b600080604083850312156116fa57600080fd5b600061170885828601611601565b925050602061171985828601611601565b9150509250929050565b60008060006060848603121561173857600080fd5b600061174686828701611601565b935050602061175786828701611601565b9250506040611768868287016116a9565b9150509250925092565b6000806000806080858703121561178857600080fd5b600061179687828801611601565b94505060206117a787828801611601565b93505060406117b8878288016116a9565b925050606085013567ffffffffffffffff8111156117d557600080fd5b6117e187828801611655565b91505092959194509250565b6000806040838503121561180057600080fd5b600061180e85828601611601565b925050602061181f85828601611616565b9150509250929050565b6000806040838503121561183c57600080fd5b600061184a85828601611601565b925050602083013567ffffffffffffffff81111561186757600080fd5b6118738582860161167f565b9150509250929050565b6000806040838503121561189057600080fd5b600061189e85828601611601565b92505060206118af858286016116a9565b9150509250929050565b6000602082840312156118cb57600080fd5b60006118d98482850161162b565b91505092915050565b6000602082840312156118f457600080fd5b600061190284828501611640565b91505092915050565b60006020828403121561191d57600080fd5b600061192b848285016116a9565b91505092915050565b61193d81611f42565b82525050565b61194c81611f54565b82525050565b600061195d82611e80565b6119678185611e96565b9350611977818560208601611fc5565b611980816120e8565b840191505092915050565b600061199682611e8b565b6119a08185611ea7565b93506119b0818560208601611fc5565b6119b9816120e8565b840191505092915050565b60006119d1603283611ea7565b91506119dc826120f9565b604082019050919050565b60006119f4601c83611ea7565b91506119ff82612148565b602082019050919050565b6000611a17602483611ea7565b9150611a2282612171565b604082019050919050565b6000611a3a601983611ea7565b9150611a45826121c0565b602082019050919050565b6000611a5d602c83611ea7565b9150611a68826121e9565b604082019050919050565b6000611a80603883611ea7565b9150611a8b82612238565b604082019050919050565b6000611aa3602a83611ea7565b9150611aae82612287565b604082019050919050565b6000611ac6602983611ea7565b9150611ad1826122d6565b604082019050919050565b6000611ae9602083611ea7565b9150611af482612325565b602082019050919050565b6000611b0c602c83611ea7565b9150611b178261234e565b604082019050919050565b6000611b2f602983611ea7565b9150611b3a8261239d565b604082019050919050565b6000611b52602183611ea7565b9150611b5d826123ec565b604082019050919050565b6000611b75603183611ea7565b9150611b808261243b565b604082019050919050565b611b9481611fac565b82525050565b6000602082019050611baf6000830184611934565b92915050565b6000608082019050611bca6000830187611934565b611bd76020830186611934565b611be46040830185611b8b565b8181036060830152611bf68184611952565b905095945050505050565b6000602082019050611c166000830184611943565b92915050565b60006020820190508181036000830152611c36818461198b565b905092915050565b60006020820190508181036000830152611c57816119c4565b9050919050565b60006020820190508181036000830152611c77816119e7565b9050919050565b60006020820190508181036000830152611c9781611a0a565b9050919050565b60006020820190508181036000830152611cb781611a2d565b9050919050565b60006020820190508181036000830152611cd781611a50565b9050919050565b60006020820190508181036000830152611cf781611a73565b9050919050565b60006020820190508181036000830152611d1781611a96565b9050919050565b60006020820190508181036000830152611d3781611ab9565b9050919050565b60006020820190508181036000830152611d5781611adc565b9050919050565b60006020820190508181036000830152611d7781611aff565b9050919050565b60006020820190508181036000830152611d9781611b22565b9050919050565b60006020820190508181036000830152611db781611b45565b9050919050565b60006020820190508181036000830152611dd781611b68565b9050919050565b6000602082019050611df36000830184611b8b565b92915050565b6000611e03611e14565b9050611e0f828261202a565b919050565b6000604051905090565b600067ffffffffffffffff821115611e3957611e386120b9565b5b611e42826120e8565b9050602081019050919050565b600067ffffffffffffffff821115611e6a57611e696120b9565b5b611e73826120e8565b9050602081019050919050565b600081519050919050565b600081519050919050565b600082825260208201905092915050565b600082825260208201905092915050565b6000611ec382611fac565b9150611ece83611fac565b9250827fffffffffffffffffffffffffffffffffffffffffffffffffffffffffffffffff03821115611f0357611f0261205b565b5b828201905092915050565b6000611f1982611fac565b9150611f2483611fac565b925082821015611f3757611f3661205b565b5b828203905092915050565b6000611f4d82611f8c565b9050919050565b60008115159050919050565b60007fffffffff0000000000000000000000000000000000000000000000000000000082169050919050565b600073ffffffffffffffffffffffffffffffffffffffff82169050919050565b6000819050919050565b82818337600083830152505050565b60005b83811015611fe3578082015181840152602081019050611fc8565b83811115611ff2576000848401525b50505050565b6000600282049050600182168061201057607f821691505b602082108114156120245761202361208a565b5b50919050565b612033826120e8565b810181811067ffffffffffffffff82111715612052576120516120b9565b5b80604052505050565b7f4e487b7100000000000000000000000000000000000000000000000000000000600052601160045260246000fd5b7f4e487b7100000000000000000000000000000000000000000000000000000000600052602260045260246000fd5b7f4e487b7100000000000000000000000000000000000000000000000000000000600052604160045260246000fd5b6000601f19601f8301169050919050565b7f4552433732313a207472616e7366657220746f206e6f6e20455243373231526560008201527f63656976657220696d706c656d656e7465720000000000000000000000000000602082015250565b7f4552433732313a20746f6b656e20616c7265616479206d696e74656400000000600082015250565b7f4552433732313a207472616e7366657220746f20746865207a65726f2061646460008201527f7265737300000000000000000000000000000000000000000000000000000000602082015250565b7f4552433732313a20617070726f766520746f2063616c6c657200000000000000600082015250565b7f4552433732313a206f70657261746f7220717565727920666f72206e6f6e657860008201527f697374656e7420746f6b656e0000000000000000000000000000000000000000602082015250565b7f4552433732313a20617070726f76652063616c6c6572206973206e6f74206f7760008201527f6e6572206e6f7220617070726f76656420666f7220616c6c0000000000000000602082015250565b7f4552433732313a2062616c616e636520717565727920666f7220746865207a6560008201527f726f206164647265737300000000000000000000000000000000000000000000602082015250565b7f4552433732313a206f776e657220717565727920666f72206e6f6e657869737460008201527f656e7420746f6b656e0000000000000000000000000000000000000000000000602082015250565b7f4552433732313a206d696e7420746f20746865207a65726f2061646472657373600082015250565b7f4552433732313a20617070726f76656420717565727920666f72206e6f6e657860008201527f697374656e7420746f6b656e0000000000000000000000000000000000000000602082015250565b7f4552433732313a207472616e73666572206f6620746f6b656e2074686174206960008201527f73206e6f74206f776e0000000000000000000000000000000000000000000000602082015250565b7f4552433732313a20617070726f76616c20746f2063757272656e74206f776e6560008201527f7200000000000000000000000000000000000000000000000000000000000000602082015250565b7f4552433732313a207472616e736665722063616c6c6572206973206e6f74206f60008201527f776e6572206e6f7220617070726f766564000000000000000000000000000000602082015250565b61249381611f42565b811461249e57600080fd5b50565b6124aa81611f54565b81146124b557600080fd5b50565b6124c181611f60565b81146124cc57600080fd5b50565b6124d881611fac565b81146124e357600080fd5b5056fea2646970667358221220a64cc52c60db6713d3486775357af7e53828849ac52789071633d3e08741443f64736f6c63430008010033",
  "immutableReferences": {},
  "source": "// SPDX-License-Identifier: MIT \npragma solidity ^0.8.0;\n\nimport \"@openzeppelin/contracts/token/ERC721/ERC721.sol\";\nimport \"@openzeppelin/contracts/utils/Counters.sol\";\n\ncontract NFTItem is ERC721 {\n    using Counters for Counters.Counter;\n    Counters.Counter private _tokenIds;\n    \n    //mapping for token URIs\n    mapping (uint256 => string) private _tokenURIs;\n    \n    constructor() ERC721(\"NFTItem\", \"NFTI\") {}\n    \n    function _setTokenURI(uint256 tokenID, string memory _tokenURI) internal virtual {\n        _tokenURIs[tokenID] = _tokenURI;\n    }\n    \n    function newItem(address userAddress, string memory _tokenURI) public returns (uint256) {\n        _tokenIds.increment();\n        \n        uint256 newItemId = _tokenIds.current();\n        _mint(userAddress, newItemId);\n        _setTokenURI(newItemId, _tokenURI);\n        \n        return newItemId;\n    }   \n    \n    function tokenURI(uint256 tokenID) public view virtual override returns (string memory){\n        return _tokenURIs[tokenID];\n    }\n}\n",
  "sourcePath": "/home/luca/Desktop/NFT-Marketplace/contracts/NFT.sol",
  "compiler": {
    "name": "solc",
    "version": "0.8.1+commit.df193b15.Emscripten.clang"
  },
  "schemaVersion": "3.4.2",
  "updatedAt": "2021-08-04T14:51:44.910Z",
  "devdoc": {
    "kind": "dev",
    "methods": {
      "approve(address,uint256)": {
        "details": "See {IERC721-approve}."
      },
      "balanceOf(address)": {
        "details": "See {IERC721-balanceOf}."
      },
      "getApproved(uint256)": {
        "details": "See {IERC721-getApproved}."
      },
      "isApprovedForAll(address,address)": {
        "details": "See {IERC721-isApprovedForAll}."
      },
      "name()": {
        "details": "See {IERC721Metadata-name}."
      },
      "ownerOf(uint256)": {
        "details": "See {IERC721-ownerOf}."
      },
      "safeTransferFrom(address,address,uint256)": {
        "details": "See {IERC721-safeTransferFrom}."
      },
      "safeTransferFrom(address,address,uint256,bytes)": {
        "details": "See {IERC721-safeTransferFrom}."
      },
      "setApprovalForAll(address,bool)": {
        "details": "See {IERC721-setApprovalForAll}."
      },
      "supportsInterface(bytes4)": {
        "details": "See {IERC165-supportsInterface}."
      },
      "symbol()": {
        "details": "See {IERC721Metadata-symbol}."
      },
      "transferFrom(address,address,uint256)": {
        "details": "See {IERC721-transferFrom}."
      }
    },
    "version": 1
  },
  "userdoc": {
    "kind": "user",
    "methods": {},
    "version": 1
  }
}